:020000040800F2
:1000000000C00120A5410008B12C0008B32C000855
:10001000B52C0008B72C0008B92C0008000000001F
:10002000000000000000000000000000BB2C0008E1
:10003000BD2C000800000000BF2C0008C12C0008E7
:10004000F5410008F5410008F5410008F5410008B8
:10005000F5410008F5410008F5410008F5410008A8
:10006000F5410008F5410008F5410008F541000898
:10007000F5410008F5410008F5410008F541000888
:10008000F5410008F5410008F5410008F541000878
:10009000F5410008F5410008F5410008F541000868
:1000A000F54100086D190008F5410008F541000808
:1000B00089190008F5410008F5410008F5410008DC
:1000C000F5410008F5410008F5410008F541000838
:1000D000F5410008F5410008F5410008F541000828
:1000E000F5410008F5410008F5410008F541000818
:1000F000F5410008F5410008F5410008F541000808
:10010000F5410008F5410008F5410008F5410008F7
:10011000F5410008F5410008F5410008F5410008E7
:10012000F5410008F5410008A1190008F541000853
:10013000F5410008F5410008F5410008F5410008C7
:10014000F5410008F5410008F5410008F5410008B7
:10015000F5410008F5410008F5410008F5410008A7
:10016000F5410008F5410008F5410008F541000897
:10017000F5410008F5410008F541000800000000C5
:04018000F54100083D
:1001880010B5054C237833B9044B13B10448AFF3C9
:1001980000800123237010BDD00000200000000063
:1001A80090CD000808B5034B1BB103490348AFF3D2
:1001B800008008BD00000000D400002090CD000899
:1001C80010F8012B11F8013B012A28BF9A42F7D0F9
:1001D800D01A7047034613F8012B002AFBD1181ACE
:1001E8000138704781F0004102E000BF83F000430E
:1001F80030B54FEA41044FEA430594EA050F08BFBA
:1002080090EA020F1FBF54EA000C55EA020C7FEA7D
:10021800645C7FEA655C00F0E2804FEA5454D4EBFA
:100228005555B8BF6D420CDD2C4480EA020281EAC4
:10023800030382EA000083EA010180EA020281EAFC
:100248000303362D88BF30BD11F0004F4FEA01314E
:100258004FF4801C4CEA113102D0404261EB41015D
:1002680013F0004F4FEA03334CEA133302D05242E3
:1002780063EB430394EA050F00F0A780A4F101049F
:10028800D5F1200E0DDB02FA0EFC22FA05F28018D9
:1002980041F1000103FA0EF2801843FA05F35941BF
:1002A8000EE0A5F120050EF1200E012A03FA0EFC3E
:1002B80028BF4CF0020C43FA05F3C01851EBE37168
:1002C80001F0004507D54FF0000EDCF1000C7EEB85
:1002D80000006EEB0101B1F5801F1BD3B1F5001FC3
:1002E8000CD349085FEA30004FEA3C0C04F10104E2
:1002F8004FEA445212F5800F80F09A80BCF1004F0B
:1003080008BF5FEA500C50F1000041EB045141EA8C
:10031800050130BD5FEA4C0C404141EB0101013C55
:1003280028BFB1F5801FE9D291F0000F04BF014644
:100338000020B1FA81F308BF2033A3F10B03B3F116
:1003480020020CDA0C3208DD02F1140CC2F10C02A6
:1003580001FA0CF021FA02F10CE002F11402D8BF04
:10036800C2F1200C01FA02F120FA0CFCDCBF41EAD0
:100378000C019040E41AA2BF01EB0451294330BD9F
:100388006FEA04041F3C1CDA0C340EDC04F114047C
:10039800C4F1200220FA04F001FA02F340EA030053
:1003A80021FA04F345EA030130BDC4F10C04C4F199
:1003B800200220FA02F001FA04F340EA0300294679
:1003C80030BD21FA04F0294630BD94F0000F83F4C3
:1003D800801306BF81F480110134013D4EE77FEAA6
:1003E800645C18BF7FEA655C29D094EA050F08BFF2
:1003F80090EA020F05D054EA000C04BF19461046D3
:1004080030BD91EA030F1EBF0021002030BD5FEA16
:10041800545C05D14000494128BF41F0004130BD3E
:1004280014F580043CBF01F5801130BD01F0004592
:1004380045F0FE4141F470014FF0000030BD7FEA05
:10044800645C1ABF194610467FEA655C1CBF0B4600
:10045800024650EA013406BF52EA033591EA030F17
:1004680041F4002130BD00BF90F0000F04BF00210F
:10047800704730B54FF4806404F132044FF0000542
:100488004FF0000150E700BF90F0000F04BF0021BB
:10049800704730B54FF4806404F1320410F0004521
:1004A80048BF40424FF000013EE700BF42004FEA1C
:1004B800E2014FEA31014FEA02701FBF12F07F4399
:1004C80093F07F4F81F06051704732F07F4208BF50
:1004D800704793F07F4F04BF41F40021704730B557
:1004E8004FF4607401F0004521F000411CE700BFA3
:1004F80050EA010208BF704730B54FF000050AE026
:1005080050EA010208BF704730B511F0004502D526
:10051800404261EB41014FF4806404F132045FEA28
:10052800915C3FF4D8AE4FF003025FEADC0C18BFD1
:1005380003325FEADC0C18BF033202EBDC02C2F1C3
:10054800200300FA03FC20FA02F001FA03FE40EA55
:100558000E0021FA02F11444BDE600BF70B54FF059
:10056800FF0C4CF4E06C1CEA11541DBF1CEA135537
:1005780094EA0C0F95EA0C0F00F0DEF82C4481EA9F
:10058800030621EA4C5123EA4C5350EA013518BFBF
:1005980052EA033541F4801143F4801338D0A0FBAC
:1005A80002CE4FF00005E1FB02E506F00042E0FB59
:1005B80003E54FF00006E1FB03569CF0000F18BF5F
:1005C8004EF0010EA4F1FF04B6F5007F64F5407407
:1005D80004D25FEA4E0E6D4146EB060642EAC6219A
:1005E80041EA55514FEAC52040EA5E504FEACE2E07
:1005F800B4F1FD0C88BFBCF5E06F1ED8BEF1004F0A
:1006080008BF5FEA500E50F1000041EB045170BD85
:1006180006F0004646EA010140EA020081EA0301C9
:10062800B4EB5C04C2BFD4EB0C0541EA045170BDC5
:1006380041F480114FF0000E013C00F3AB8014F13F
:10064800360FDEBF002001F0004170BDC4F1000488
:10065800203C35DA0C341BDC04F11404C4F1200509
:1006680000FA05F320FA04F001FA05F240EA020064
:1006780001F0004221F0004110EBD37021FA04F69A
:1006880042EB06015EEA430E08BF20EAD37070BD54
:10069800C4F10C04C4F1200500FA04F320FA05F0B3
:1006A80001FA04F240EA020001F0004110EBD370B5
:1006B80041F100015EEA430E08BF20EAD37070BD25
:1006C800C4F1200500FA05F24EEA020E20FA04F3FE
:1006D80001FA05F243EA020321FA04F001F00041AD
:1006E80021FA04F220EA020000EBD3705EEA430E1E
:1006F80008BF20EAD37070BD94F0000F0FD101F04D
:100708000046400041EB010111F4801F08BF013C85
:10071800F7D041EA060195F0000F18BF704703F0C3
:100728000046520043EB030313F4801F08BF013D4A
:10073800F7D043EA0603704794EA0C0F0CEA135506
:1007480018BF95EA0C0F0CD050EA410618BF52EAC0
:100758004306D1D181EA030101F000414FF00000C6
:1007680070BD50EA410606BF1046194652EA4306D4
:1007780019D094EA0C0F02D150EA013613D195EA48
:100788000C0F05D152EA03361CBF104619460AD190
:1007980081EA030101F0004141F0FE4141F470019A
:1007A8004FF0000070BD41F0FE4141F4780170BD8A
:1007B80070B54FF0FF0C4CF4E06C1CEA11541DBFEF
:1007C8001CEA135594EA0C0F95EA0C0F00F0A7F8F1
:1007D800A4EB050481EA030E52EA03354FEA01311E
:1007E80000F088804FEA03334FF0805545EA131331
:1007F80043EA12634FEA022245EA111545EA1065F9
:100808004FEA00260EF000419D4208BF964244F18F
:10081800FD0404F5407402D25B084FEA3202B61AAE
:1008280065EB03055B084FEA32024FF480104FF482
:10083800002CB6EB020E75EB030E22BFB61A7546F6
:1008480040EA0C005B084FEA3202B6EB020E75EB89
:10085800030E22BFB61A754640EA5C005B084FEAF1
:100868003202B6EB020E75EB030E22BFB61A7546BE
:1008780040EA9C005B084FEA3202B6EB020E75EBC9
:10088800030E22BFB61A754640EADC0055EA060E8A
:1008980018D04FEA051545EA16754FEA06164FEACD
:1008A800C30343EA52734FEAC2025FEA1C1CC0D179
:1008B80011F4801F0BD141EA00014FF000004FF006
:1008C800004CB6E711F4801F04BF01430020B4F1C7
:1008D800FD0C88BFBCF5E06F3FF6AFAEB5EB030C7F
:1008E80004BFB6EB020C5FEA500C50F1000041EB7C
:1008F800045170BD0EF0004E4EEA113114EB5C0449
:10090800C2BFD4EB0C0541EA045170BD41F480111B
:100918004FF0000E013C90E645EA060E8DE60CEA23
:10092800135594EA0C0F08BF95EA0C0F3FF43BAF40
:1009380094EA0C0F0AD150EA01347FF434AF95EAF7
:100948000C0F7FF425AF104619462CE795EA0C0FDB
:1009580006D152EA03353FF4FDAE1046194622E7A8
:1009680050EA410618BF52EA43067FF4C5AE50EA82
:1009780041047FF40DAF52EA43057FF4EBAE12E772
:100988004FF0FF3C06E000BF4FF0010C02E000BF53
:100998004FF0010C4DF804CD4FEA410C7FEA6C5C36
:1009A8004FEA430C18BF7FEA6C5C1BD001B050EAD9
:1009B800410C0CBF52EA430C91EA030F02BF90EAC4
:1009C800020F0020704710F1000F91EA030F58BF83
:1009D800994208BF90422CBFD8176FEAE37040F0E5
:1009E800010070474FEA410C7FEA6C5C02D150EA83
:1009F800013C07D14FEA430C7FEA6C5CD6D152EA3E
:100A0800033CD3D05DF8040B704700BF8446104602
:100A180062468C461946634600E000BF01B5FFF701
:100A2800B7FF002848BF10F1000F01BD4DF808EDD1
:100A3800FFF7F4FF0CBF012000205DF808FB00BFA2
:100A48004DF808EDFFF7EAFF34BF012000205DF8FC
:100A580008FB00BF4DF808EDFFF7E0FF94BF012049
:100A680000205DF808FB00BF4DF808EDFFF7CEFF4A
:100A780094BF012000205DF808FB00BF4DF808ED89
:100A8800FFF7C4FF34BF012000205DF808FB00BF5A
:100A98004FEA410212F5001215D211D56FF478739E
:100AA800B3EB625212D94FEAC12343F0004343EA41
:100AB800505311F0004F23FA02F018BF404270471C
:100AC8004FF00000704750EA013005D111F00040A6
:100AD80008BF6FF0004070474FF00000704700BF3C
:100AE8004A0011D212F5001211D20DD56FF47873A5
:100AF800B3EB62520ED44FEAC12343F0004343EAFA
:100B0800505323FA02F070474FF00000704750EA44
:100B1800013002D14FF0FF3070474FF000007047AE
:100B280080F0004002E000BF81F0004142001FBF9A
:100B38005FEA410392EA030F7FEA226C7FEA236CA3
:100B48006AD04FEA1262D2EB1363C1BFD218414098
:100B580048404140B8BF5B42192B88BF704710F02E
:100B6800004F40F4000020F07F4018BF404211F0D1
:100B7800004F41F4000121F07F4118BF494292EA39
:100B8800030F3FD0A2F1010241FA03FC10EB0C0065
:100B9800C3F1200301FA03F100F0004302D54942F2
:100BA80060EB4000B0F5000F13D3B0F1807F06D39F
:100BB80040084FEA310102F10102FE2A51D2B1F197
:100BC800004F40EBC25008BF20F0010040EA03008C
:100BD8007047490040EB0000013A28BFB0F5000F0C
:100BE800EDD2B0FA80FCACF1080CB2EB0C0200FAC2
:100BF8000CF0AABF00EBC25052421843BCBFD04011
:100C08001843704792F0000F81F4000106BF80F48A
:100C180000000132013BB5E74FEA41037FEA226C4D
:100C280018BF7FEA236C21D092EA030F04D092F018
:100C3800000F08BF0846704790EA010F1CBF00204C
:100C4800704712F07F4F04D1400028BF40F00040A9
:100C5800704712F100723CBF00F50000704700F0C9
:100C6800004343F0FE4040F4000070477FEA2262F0
:100C780016BF08467FEA23630146420206BF5FEAC1
:100C8800412390EA010F40F4800070474FF00003C1
:100C980004E000BF10F0004348BF40425FEA000C88
:100CA80008BF704743F0964301464FF000001CE030
:100CB80050EA010208BF70474FF000030AE000BF86
:100CC80050EA010208BF704711F0004302D54042C4
:100CD80061EB41015FEA010C02BF84460146002036
:100CE80043F0B64308BFA3F18053A3F50003BCFA51
:100CF8008CF2083AA3EBC25310DB01FA02FC6344FE
:100D080000FA02FCC2F12002BCF1004F20FA02F204
:100D180043EB020008BF20F00100704702F12002F7
:100D280001FA02FCC2F1200250EA4C0021FA02F258
:100D380043EB020008BF20EADC7070474FF0FF0C5D
:100D48001CEAD0521EBF1CEAD15392EA0C0F93EA58
:100D58000C0F6FD01A4480EA010C400218BF5FEAFA
:100D680041211ED04FF0006343EA501043EA51116D
:100D7800A0FB01310CF00040B1F5000F3EBF490067
:100D880041EAD3715B0040EA010062F17F02FD2A6B
:100D98001DD8B3F1004F40EBC25008BF20F001004E
:100DA800704790F0000F0CF0004C08BF49024CEA65
:100DB800502040EA51207F3AC2BFD2F1FF0340EAF7
:100DC800C250704740F400004FF00003013A5DDC68
:100DD80012F1190FDCBF00F000407047C2F10002A9
:100DE800410021FA02F1C2F1200200FA02FC5FEA96
:100DF800310040F1000053EA4C0308BF20EADC70E0
:100E0800704792F0000F00F0004C02BF400010F451
:100E1800000F013AF9D040EA0C0093F0000F01F0FE
:100E2800004C02BF490011F4000F013BF9D041EA20
:100E38000C018FE70CEAD15392EA0C0F18BF93EA22
:100E48000C0F0AD030F0004C18BF31F0004CD8D14C
:100E580080EA010000F00040704790F0000F17BFD3
:100E680090F0004F084691F0000F91F0004F14D019
:100E780092EA0C0F01D142020FD193EA0C0F03D171
:100E88004B0218BF084608D180EA010000F0004074
:100E980040F0FE4040F40000704740F0FE4040F44F
:100EA800400070474FF0FF0C1CEAD0521EBF1CEAEE
:100EB800D15392EA0C0F93EA0C0F69D0A2EB03020C
:100EC80080EA010C49024FEA402037D04FF08053A6
:100ED80043EA111143EA10130CF000408B4238BF6B
:100EE8005B0042F17D024FF4000C8B4224BF5B1A79
:100EF80040EA0C00B3EB510F24BFA3EB510340EAC7
:100F08005C00B3EB910F24BFA3EB910340EA9C0074
:100F1800B3EBD10F24BFA3EBD10340EADC001B01E4
:100F280018BF5FEA1C1CE0D1FD2A3FF650AF8B4288
:100F380040EBC25008BF20F0010070470CF0004C95
:100F48004CEA50207F32C2BFD2F1FF0340EAC250C0
:100F5800704740F400004FF00003013A37E792F081
:100F6800000F00F0004C02BF400010F4000F013ADF
:100F7800F9D040EA0C0093F0000F01F0004C02BFDA
:100F8800490011F4000F013BF9D041EA0C0195E743
:100F98000CEAD15392EA0C0F08D142027FF47DAFDC
:100FA80093EA0C0F7FF470AF084676E793EA0C0FCC
:100FB80004D14B023FF44CAF08466EE730F0004CCA
:100FC80018BF31F0004CCAD130F000427FF45CAF5A
:100FD80031F000437FF43CAF5FE700BF4FF0FF3CC8
:100FE80006E000BF4FF0010C02E000BF4FF0010C1B
:100FF8004DF804CD4FEA40024FEA41037FEA226CE4
:1010080018BF7FEA236C11D001B052EA530C18BF05
:1010180090EA010F58BFB2EB030088BFC81738BF6A
:101028006FEAE17018BF40F0010070477FEA226C58
:1010380002D15FEA402C05D17FEA236CE4D15FEA54
:10104800412CE1D05DF8040B704700BF8446084688
:101058006146FFE70FB5FFF7C9FF002848BF10F149
:10106800000F0FBD4DF808EDFFF7F4FF0CBF01208E
:1010780000205DF808FB00BF4DF808EDFFF7EAFF18
:1010880034BF012000205DF808FB00BF4DF808EDD3
:10109800FFF7E0FF94BF012000205DF808FB00BFC8
:1010A8004DF808EDFFF7D2FF94BF012000205DF84E
:1010B80008FB00BF4DF808EDFFF7C8FF34BF01205B
:1010C80000205DF808FB00BF4FEA4002B2F1FE4F76
:1010D8000FD34FF09E03B3EB12620DD94FEA0023F2
:1010E80043F0004310F0004F23FA02F018BF4042CB
:1010F80070474FF00000704712F1610F01D14202B2
:1011080005D110F0004008BF6FF0004070474FF065
:101118000000704753B94AB9002908BF00281CBF0E
:101128004FF0FF314FF0FF3000F076B9ADF1080C09
:101138006DE904CE00F006F8DDF804E0DDE90223ED
:1011480004B070472DE9F047089E0D4604468846CE
:10115800002B4DD18A42944668D9B2FA82F252B134
:1011680001FA02F3C2F1200120FA01F10CFA02FCA3
:1011780041EA030894404FEA1C41B8FBF1F71FFA13
:101188008CFE01FB178807FB0EF0230C43EA08438B
:1011980098420AD91CEB030307F1FF3580F01E8142
:1011A800984240F21B81023F63441B1AB3FBF1F0E3
:1011B80001FB103300FB0EFEA4B244EA0344A6452B
:1011C8000AD91CEB040400F1FF3380F00981A6451D
:1011D80040F20681644402380021A4EB0E0440EA80
:1011E80007401EB10023D440C6E90043BDE8F0879C
:1011F8008B4208D9002E00F0EE800021C6E90005D8
:101208000846BDE8F087B3FA83F100294AD1AB421A
:1012180002D3824200F2FC80841A65EB03030120AA
:101228009846002EE2D0C6E90048DFE702B9FFDEA3
:10123800B2FA82F2002A40F09180A1EB0C00012161
:101248004FEA1C471FFA8CFEB0FBF7F307FB1300AD
:10125800250C45EA00450EFB03F0A84208D91CEB13
:10126800050503F1FF3802D2A84200F2CE804346BA
:101278002D1AB5FBF7F007FB10550EFB00FEA4B2C4
:1012880044EA0544A64508D91CEB040400F1FF35DF
:1012980002D2A64500F2B6802846A4EB0E0440EA26
:1012A80003409EE7C1F120078B4022FA07FC4CEA75
:1012B800030C25FA07FA4FEA1C49BAFBF9F820FA99
:1012C80007F309FB18AA8D401FFA8CFE1D4300FA8C
:1012D80001F308FB0EF02C0C44EA0A44A04202FA7F
:1012E80001F20BD91CEB040408F1FF3A80F0888066
:1012F800A04240F28580A8F102086444241AB4FB95
:10130800F9F009FB104400FB0EFEADB245EA0444B7
:10131800A64508D91CEB040400F1FF356CD2A6459C
:101328006AD90238644440EA0840A0FB0295A4EB5D
:101338000E04AC42C846AE4656D353D0002E69D0F0
:10134800B3EB080264EB0E0422FA01F304FA07F780
:101358001F43CC40C6E90074002147E70CFA02FCA1
:10136800C2F1200125FA01F34FEA1C4720FA01F1E6
:1013780095400D43B3FBF7F107FB11331FFA8CFEC1
:10138800280C40EA034001FB0EF3834204FA02F4FE
:1013980008D91CEB000001F1FF382FD283422DD968
:1013A80002396044C01AB0FBF7F307FB1300ADB273
:1013B80045EA004503FB0EF0A84208D91CEB0505D9
:1013C80003F1FF3816D2A84214D9023B6544281A03
:1013D80043EA014138E73146304607E72F46E4E65D
:1013E8001846F9E64B45A9D2B9EB020865EB0C0E95
:1013F8000138A3E74346EAE7284694E74146D1E7A0
:10140800D0467BE76444023847E7023B65442FE750
:10141800084606E73146E9E6704700BF00F10803D1
:1014280073B50360D1E900530446EE181DB916B12F
:101438000C480AF097FA0F2B019307D9002220468F
:1014480001A90AF099FA019B2060A3603246294657
:1014580020680AF0ECFA0021019B22686360D154ED
:1014680002B070BDBCCD000810B50446C18B002287
:10147800C06A03F0E5FFE38BE06A2363236A04F1A3
:1014880030016363636AA3630223E363BDE810402A
:1014980003F0ECBE70B504468AB0424E424805AD32
:1014A8000AF08CFD0FCE0FC5336822682B601378C5
:1014B800502B2AD151783D48A1F14103A376D37826
:1014C800303B9BB2A3831279303A92B2082A9EBF6E
:1014D80003EB830302EB4303A3830123A28B934013
:1014E800E3830AF0E5FCA18B31480AF0E1FCA37E16
:1014F8000AAA02EB830252F8142CE262042B16D8D3
:10150800DFE803F0091B283542002A480AB0BDE885
:1015180070400AF053BD00230093274B1A6B42F02A
:1015280001021A631B6B03F001030093009B204622
:101538000AB0BDE87040FFF797BF002301931E4B28
:101548001A6B42F002021A631B6B03F00203019349
:10155800019BECE700230293174B1A6B42F004023D
:101568001A631B6B03F004030293029BDFE700235B
:101578000393114B1A6B42F008021A631B6B03F0BA
:1015880008030393039BD2E7002304930A4B1A6BC7
:1015980042F010021A631B6B03F010030493049BC0
:1015A800C5E700BFA8CD0008E6CD0008F5CD0008C6
:1015B80006CE000812CE00080038024038B515469D
:1015C8000446EDB2FFF72AFF14220021257604F124
:1015D80030000AF089FB35B9C4E908552046FFF701
:1015E80059FF204638BD01220023C4E90823F5E746
:1015F80070B516461D460446F6B2EDB2FFF70EFF6B
:10160800142200212676657604F130000AF06CFB7E
:10161800DEB92662042D09D8DFE805F01208030DAB
:1016280012000B480AF0CAFC012363622046FFF748
:1016380031FF204670BD07480AF0C0FC0223F4E7DA
:1016480005480AF0BBFC0023EFE701232362FAE711
:1016580034CE00084DCE000868CE000803F0CEBC9A
:101668007FB5324B98425FD843F6FE71002300F1F4
:1016780078428A42CDE9003333D9A2F580438B42C0
:101688003ED9A2F500438B423CD9A2F540428A429A
:101698003AD94FF6FE7300F1774000F57F029A427F
:1016A80034D900F57E0203F580339A4230D900F52B
:1016B8007C029A422ED900F57A029A422CD900F57A
:1016C80078029A422AD900F576029A4228D900F57A
:1016D80074029A4226D900F57200984294BF0B23EF
:1016E8000023012203930223694601A8CDE90423BC
:1016F80003F06CFD003818BF012007B05DF804FB4B
:101708000123EEE70223ECE70323EAE70423E8E7F3
:101718000523E6E70623E4E70723E2E70823E0E7F3
:101728000923DEE70A23DCE70120E6E700000E08CC
:101738002DE9F041044617460026DFF840800D1FCA
:10174800B74214D92368434511D8002302202168E1
:101758006A6803F08DFC68B923681A6855F8043F75
:101768009A4209D12368013604332360E8E7002050
:10177800BDE8F0810120FBE70220F9E7FBFF0F0835
:10178800704700002DE9F8431546DFF8C4905289E8
:101798000E46484669681F46BDF820800AF07CFA64
:1017A800D9F800302B4A93422FD12B4C2378612350
:1017B8002370627874226270A278A370E37864233D
:1017C800E370264B4424186801F058FC0022A4B2A8
:1017D8002146104605F0E0FB814622461E4905F0E9
:1017E8004DFE42463946304608F000FE494630462E
:1017F80008F0F2FD304608F021FE484605F068FB87
:101808002846BDE8F84305F063BB154A93421CD14E
:10181800114C23786E23237063786B236370A3784D
:101828006323A370E3786123E3700C4B186801F01D
:1018380025FC72B600230B4A19F8011BD154013359
:10184800442BF9D162B60424C0E70024BEE700BFE8
:101858006002002064616572F50200205C010020CE
:1018680074697277A402002070B514460A4D528933
:10187800616828460AF010FA204605F029FB2A6814
:10188800064B9A4206D1BDE87040054B18680368BC
:101898005B69184770BD00BFDC0100206467706D8C
:1018A8003C01002011B9C0E900117047024B0360E8
:1018B80000234360704700BF8917000838B50D46FC
:1018C800044654B1E16835B149B9B4F90A3063B195
:1018D80004EB0314F5E70029F7D1204638BD284664
:1018E800FEF76EFC0028F0D1F7E71C46F5E7034643
:1018F800D1E901021030824210B512D3A2F11000D2
:101908008860596859B1441A24114C8158600023E1
:1019180022F8063C02F8083C42F8043C10BD186066
:10192800F4E70020FAE7826810B54AB14368C46852
:10193800A3422DBF00235C1C4460836038BFD15490
:1019480010BD38B504460021FFF7EDFFA06838B197
:10195800D4E90051E368CA1A6B6813446B60E1600C
:1019680038BD0000054B1A69D20705D51A6922F05F
:1019780001021A6101F034BB704700BF000001404A
:101988004FF080431A69D20705D51A6922F001027F
:101998001A6101F02DBB704701F032BB38B5302019
:1019A80009F0C9FF04460E4B19220E491B6802F0C4
:1019B800B3FA0D4B0D4D1C602023302085F81933E8
:1019C80009F0B9FF04460A4B1C221B684FF08041FE
:1019D80002F0A2FA074B1C60302385F81C3338BD8F
:1019E80048000020000001405801002000E100E00C
:1019F80050000020E802002007B54FF6FF73019061
:101A0800012201A9034804F0E1FA019803B05DF846
:101A180004FB00BF9001002038B5244B5968B1F58C
:101A2800403F08D30022224B22481A700AF0C6FA17
:101A38004FF0FF3038BD204A204C136BA2F50062EE
:101A480043F48053C2F8303801239360002399424D
:101A580006D054F8230090FAA0F010600133F6E79E
:101A6800136893FAA3F3DB43154C104D1548236014
:101A78000AF01EFAA96814480AF01AFA21681348ED
:101A88000AF016FA0C4A136B23F4805313632A687E
:101A980023689A424FF00002054B1A7001D00C4897
:101AA800C4E70C480AF08AFA0120C3E700000D08D1
:101AB8001502002081CE00080038024000020D08FF
:101AC800640100209ECE0008B3CE0008CDCE0008E9
:101AD800D9CE0008F8CE0008104B70B59D681048A4
:101AE800FFF7BEFD0023AAB202200D4903F0C0FA99
:101AF800002403460B4EADB2AC420DD253B904F1EB
:101B0800006202F55022184692F80022A11903F04B
:101B1800AFFA03460134EFE770BD00BF00000D08BF
:101B280000000E0804000E08F8B504461B480AF029
:101B380045FA1B4B1E68731C17D11A480AF03EFA67
:101B480019480AF03BFA20464FF406710AF029F8C2
:101B58000024164D164E304615F8011B013409F0C5
:101B6800ABFFB4F5067FF6D1F8BD314620460AF042
:101B780018F800250E4FB54209D005F1006303F5AA
:101B880060233846197909F097FF0135F3E7216892
:101B98000848BDE8F8400AF08BB900BF15CF000827
:101BA80000000E084BCF00087CCF000873D2000855
:101BB80040010020B7CF000810B592B010220021D4
:101BC80008A80AF091F80021142201A80AF08CF85C
:101BD80001230224CDE906334FF480031921CDE90E
:101BE8000C43F023CDE90E13042306A81094119397
:101BF80003F02CFC08B172B6FEE70F234FF4A05295
:101C0800CDE901344FF480530390032101A8CDE9B5
:101C1800042303F0D9FD08B172B6FEE712B010BD77
:101C280013B508F02FFC4FF00A3346F62D2201A910
:101C38000446019308F0DCFA024698B920460D499B
:101C480008F004FC08F01EFC46F62E2201A9044602
:101C580008F0CEFA024648B92046074908F0F6FBD4
:101C680002B010BD204608F0F5FBEBE7204608F06F
:101C7800F1FBF5E78D17000871180008837B33B96D
:101C880043685A1C42601B78437301238373407B6B
:101C9800704770B5044600252046FFF7EFFF0D2872
:101CA80023D007D8D8B10938C0B201281DD94FF0C0
:101CB800000016E0202818D02F28F8D12046A57358
:101CC800FFF7DCFF2A2804D02F2816D04FF0020097
:101CD80007E00026A5732046FFF7D0FF10B94FF0A4
:101CE800010070BD2F2802D10EB1A573D4E7A0F171
:101CF8002A035E425E41A573EDE72046A573FFF710
:101D0800BDFF0028EBD00A28F7D1C5E740B1037A18
:101D180003F07F03033B012B01D8006870470020C4
:101D28007047037A024613F0200002D01068FFF7CC
:101D3800C5BD7047F0B50025826885B001950E468F
:101D4800D2E9011353605B1A04460092029103938F
:101D5800FFF794FF0746A5732046FFF78FFF8742DA
:101D68000146A57323D018B94FF0010005B0F0BDA6
:101D78005C2818D12046FFF781FF01460028F3D0E0
:101D880075280CD00F4B1A79181D5AB1914203F1DE
:101D98000203F8D1417829B94FF00200E6E74FF085
:101DA8000400E3E7A5736846FFF7BDFDD4E768467E
:101DB800FFF7C7FD306010B94FF00300D6E74FF0CA
:101DC8000000D3E7BCCF00082F2807D9392803D94A
:101DD8005E280CD97A2805D8012070472B28FBD01B
:101DE8002D28F9D0A0F12E035842584170474028B9
:101DF800F8D95A28EFE7F0B585B005460E46FFF743
:101E08003DFF272829D0222827D00027AA68019734
:101E1800D2E90113284653605B1A0092029103939A
:101E2800FFF72CFF0446F0B1FFF7CEFFE8B12146DB
:101E38006846AF73FFF777FD2846FFF71FFF044694
:101E4800FFF7C2FF0028F2D16846FFF77AFD0028A5
:101E5800306014BF0020032003E031462846FFF716
:101E680069FF05B0F0BD0120FBE70220F9E710B1DA
:101E78000068FFF723BD70472DE9F84338480AF09A
:101E88009DF8182009F057FD044601F0E7F8354B96
:101E980021461C60344B186802F0E0F8334B1B787D
:101EA800002B5AD132493348FFF73BFF002854D062
:101EB800037A5B0651D504682F4FDFF8C080DFF83E
:101EC800C090002C49D0237A494613F0200F14BF44
:101ED800254600252846C7E90058FFF7C8FFFFF741
:101EE80015FF284906462846FFF7C1FFFFF70EFFF2
:101EF800254905463046FEF763F978B923480AF0C4
:101F08005DF828462249FEF75BF908B901F018FF89
:101F1800B4F90A300BB304EB0314D2E730461D4979
:101F2800FEF74EF90028F3D128461B49FEF748F979
:101F380010B901F06DF9EBE728461849FEF740F9AA
:101F480010B901F03DFDE3E728461549FEF738F9D9
:101F58000028DDD101F02CFCDAE7BDE8F88300BFEA
:101F6800CBCF00085C010020E802002060010020BF
:101F7800DFCF000880010020D4010020700100207C
:101F8800E7CF0008EECF0008F3CF0008F8CF00082D
:101F98000CD0000814D00008C0D500081AD00008DA
:101FA80026D000080000000070B5334E054633788F
:101FB800324C13F0010FBFF35B8F34D1304609F078
:101FC800ABFC00282FD01AA3D3E900233046C4E97C
:101FD800002319A3D3E90023C4E9022318A3D3E9F2
:101FE8000023C4E9042318A3D3E90023C4E9062382
:101FF80017A3D3E90023C4E9082317A3D3E90023CF
:10200800C4E90A2316A3D3E90023C4E90C2316A3C1
:10201800D3E90023C4E90E2315A3D3E90023C4E9B7
:10202800102309F085FC04EBC504D4E9000170BD58
:102038009A9999999999B93F7B14AE47E17A843F67
:102048002D431CEBE2361A3F3A8C30E28E79453E3E
:10205800BC89D897B2D29C3C33A7A8D523F6493976
:102068003DA7F444FD0FA5329D978CCF08BA5B2598
:10207800436FAC642806C80AEC000020F00000207A
:102088002DE9F84F141E06460F463CDD0FF2A00955
:10209800D9E900890025E2072DD52D4BDFF8B4B02A
:1020A8001A785FFA85FA12F0010FBFF35B8F18D127
:1020B800184609F031FC264B98B11FA2D2E900124C
:1020C800CBE90A121EA2D2E90012CBE90C121EA11A
:1020D800D1E90001CBE910011846CBE90E8909F0D6
:1020E80027FC0BEBCA0A3046DAE900233946FEF72B
:1020F80035FA06460F46641005F10105CBD1304686
:102108003946BDE8F88F00256442002CF7D0E30774
:102118000AD5E8B2FFF748FF02460B463046394673
:10212800FEF71CFA06460F4664100135EDE700BFBE
:10213800321D30F94877825A176E05B5B5B89346FF
:10214800F5F93FE9034F384D3CBF737FDD4F1575F7
:1021580038010020000000202DE9F8430B780446E0
:102168002B2B0ED02D2B0DD1012501310B7803F02F
:10217800DF024E2A08D100226B4BC4E90223082350
:102188005BE001310025F1E7492A05D10022002D45
:1021980040F0B280654BF0E7A3F13002092A0BD971
:1021A8002E2B09D000220023C4E90023002300229B
:1021B800C4E90223002340E000200E464FF0993E78
:1021C80001460A274FF0FF39DFF86481334613F8D8
:1021D80001CBACF13002D2B2092A13D8864578EB8C
:1021E800010C12D307FB01FCA0FB070161446FEA55
:1021F800020C844579EB010C07D310181E4641F1F7
:102208000001E3E7BCF1000F0DD04FF00008B1F575
:10221800801F1FFA88F708F1010812D30A22002349
:10222800FEF778FFF3E7C4E90001FEF761F9002D36
:1022380014BF07230623C4E9020120462374BDE81E
:10224800F8833346BF1BFA181E4613F801CB12B2A7
:10225800ACF1300EBEF1090FF5D9BCF12E0F1BD130
:102268009C460A27DFF8CCE0664633780CF1010C6F
:10227800303BDBB2092B0FD8B0F1993F71EB0E065A
:10228800F2D2A0FB070607FB0161181802F1FF3222
:1022980041F1000112B2E7E7337803F0DF03452B81
:1022A80040D173782D2B1DD14FF0010CB71C0023A2
:1022B8004FF00A083E4617F801EBAEF1300E5FFA10
:1022C8008EF9B9F1090F19D808FB03E39E18B6F582
:1022D8009A7FEFDD0022BCF1000F3FF458AF45B9FB
:1022E80000234AE72B2B4FF0000C14BF771CB71CB8
:1022F800DDE74FF0004340E70F4B3EE7BCF1000F2E
:1023080000D05B423678002E7FF44CAFD618FEF72B
:10231800EFF83246FFF7B4FE0DB101F10041024675
:102328000B462AE70023EDE70000F87F0000F07F66
:1023380099999919999901000000F0FF2DE9F04742
:1023480096B080460D460024FFF798FCA246064644
:102358000DF118093046E7B2FFF736FD60B13F2CA2
:1023680009D0404688F80EA004F80960FFF786FCFB
:1023780001340646EEE72746002407F158036B446C
:1023880003F8404C9DF81830742B0BD12B7A01229E
:1023980023F07F0343F005032B720023C5E90023D4
:1023A800381F0CE0662B0FD12B7A002223F07F0315
:1023B80043F005032B720023C5E90023781F18BFDB
:1023C800012016B0BDE8F0876E2BE9D0684606A953
:1023D800FFF7C2FEDDE900019DF81030072B09D098
:1023E800082B11D0062B1AD12B7A23F07F0343F048
:1023F800060304E02B7A23F07F0343F00703C5E9C3
:1024080000012B722046DCE72B7A23F07F0343F090
:1024180008032B72DDE90223C5E90023F2E74FF038
:102428000200CEE730B585B005460C46FFF726FC1E
:10243800272807D0222805D021462846FFF77EFF07
:1024480005B030BD01A92846FFF774FCC1B202A847
:10245800FFF728FA029B63B9039B13F0010208D126
:102468001146237A23F07F0343F004032372019B70
:1024780023600846E4E773B50C460646FFF709FCF7
:10248800C1B202466846FFF70DFA009B7BB9019D71
:1024980015F001050BD13046FFF7F0FB5B2809D09A
:1024A8007B2814D021463046FFF7BCFF00E01046D9
:1024B80002B070BD237A214623F07F0343F0400326
:1024C8003046C4E90055237200F062F8F0E7237A39
:1024D800214623F07F0343F020033046C4E900552A
:1024E800237200F0B4F8E3E71FB51F4809F066FD52
:1024F8001E491F4B8A681B68CA604A6968460A6198
:1025080091F8202022F07F0281F82020194A002B20
:1025180008BF134601F10802CDE9002332238DF8E4
:102528000C300023183102928DF80E30FFF7A3FF0C
:10253800C4B2114809F0BCFC022C08D0032C0ED000
:102548007CB90E4804B0BDE8104009F037BD0C480E
:1025580009F034FD01220B4B1A7004B010BD0A4873
:10256800F6E70A48F4E700BF2CD00008680100200D
:1025780040010020CACF000850D000086AD00008E7
:1025880084D000086001002093D00008A5D000087E
:1025980070B5037B04460D4686B01BB94FF00500A5
:1025A80006B070BDFFF76AFB5B2802D04FF002004F
:1025B800F6E700232046A373FFF76BFBC1B268461A
:1025C800FFF770F9009B13B9019BDA0701D508469C
:1025D800E6E72046FFF752FB5D282ED10020A073C6
:1025E800DEE7237B2046013B2373FFF744FF237B71
:1025F800C1B20133237302A8FFF754F9029B002BE1
:10260800E5D1039BDB07E2D42046FFF742FBC1B2CA
:1026180004A8FFF747F9049B002BD8D1059B13F0BA
:102628000106D4D12046FFF729FB5D28D6D02046E5
:10263800FFF724FB2C28B9D1A67321682846FFF799
:1026480056F901460028CCD14FF00300A8E7F0B5B1
:10265800037B06460D468FB023B94FF005010846A7
:102668000FB0F0BDFFF70AFB7B2802D04FF0020144
:10267800F5E700233046B373FFF70BFBC1B202A89E
:10268800FFF710F9029B002BE9D1039B13F001041B
:10269800E5D13046FFF7F2FA7D2869D12146B473B7
:1026A800DDE701A93046FFF7A6FBC1B204A8FFF792
:1026B800F9F8049B002BD2D1059BDF07CFD4237AEE
:1026C800304663F07F032372019BE360FFF7E1FA72
:1026D800C1B206A8FFF7E6F8069B002BBFD1079BFF
:1026E80013F00107BBD13046FFF7C8FA3A28BDD12D
:1026F800337B2146013B33733046B773FFF7BBFE8C
:10270800337BC1B20133337308A8FFF7CBF8089BBA
:10271800002BA4D1099BD807A1D43046FFF7B9FAFA
:10272800C1B20AA8FFF7BEF80A9B002B97D10B9BF2
:10273800DA0794D43046FFF7A1FA7D2802D10021A8
:10274800B1738CE73046FFF799FA2C288ED1002315
:102758003046B373FFF79DFAC1B20CA8FFF7A2F891
:102768000C9B002B7FF47BAF0D9BDB073FF577AF0E
:1027780028463168FFF7BBF80446002891D14FF08E
:1027880003016CE7000000002DE9F04F504B87B0C3
:102798001B78002B40F094804E4809F00FFC4E49FE
:1027A8004E48FFF7BEFA002800F08A80037A5B06DD
:1027B80040F186800FF2101BDBE900AB4FF00008F8
:1027C8004FF000090468002C7AD0237A444A13F0A9
:1027D800200F14BF26460026424B43491660304658
:1027E8005360FFF744FBFFF791FA4049054630462E
:1027F800FFF73DFBE8B1037A03F07F03062B06D809
:10280800042B18D8033B012B2BD9002618E0082BE2
:10281800FBD1D0E9006742464B4630463946FEF7C1
:1028280023F930B152465B4630463946FEF712F975
:1028380098BB064604E0D0E90063002B18BF0026C9
:1028480028462B49FDF7BCFC78BB3146294B2A4862
:102858001E6009F02DFBB4F90A308BB304EB0314A6
:10286800B1E701686846FFF777FC9DF81030062B42
:1028780018D0082BC9D1DDE9026742464B463046DD
:102888003946FEF7F1F80028D3D052465B46304669
:102898003946FEF7DFF80028B7D030463946FEF74C
:1028A8001FF9C6E7DDE90063C7E728461349FDF7C6
:1028B80087FC0028CFD1124B314612481E60C8E76A
:1028C80007B0BDE8F08F00BF0000E0FFFFFFEF4159
:1028D80060010020BCD00008D4D00008800100208E
:1028E800EC02002070010020E7CF0008DCD00008CF
:1028F800F3CF000848000020E6D0000814D00008F4
:10290800500000200BD100082DE9F04188B001F0FB
:1029180093FCFFF751F903F0B5FC4FF4E133644839
:10292800644AC0E9002300230C22C0E90233C0E94D
:1029380005230361C36103F01BFB054608B172B6AA
:10294800FEE75D4809F03AFB05245C4E5C4F062D16
:1029580000F2A780DFE805F0045872808E95A30086
:1029680014B1584809F02AFB04AB0293564BD3E93B
:10297800004304EB03082CB9B8F1000F02D0534808
:1029880008F0F0FF0F2B019307D9002201A902A834
:1029980008F0F2FF019B02900493214642460298F8
:1029A80009F045F80021019B029A039302A8D1542B
:1029B800FFF7BAF802A809F001F80124FFF794FD1F
:1029C800FFF7E2FEFEF7EAFFFFF756FAFFF728F9EE
:1029D80000F0D6FA3E4803F06BFD07F043FB3D4B91
:1029E8001B786BB13C4809F0E9FAFFF715F80028A5
:1029F80006DD3A4809F0E2FAFFF76EF801F0AEFC9E
:102A08002B4625461C46A2E7012C02D0344809F083
:102A1800D5FA344C23787BB9334809F0CFFA334BD5
:102A2800186801F08FFA324809F0C8FA314B186873
:102A380001F088FA012323700224CBE7022C02D08C
:102A48002D4809F0BBFA2D4B186800F01AFB002836
:102A58000CBF2C460324BDE7032C02D0284809F0FC
:102A6800ADFA264B186800F00CFB002814BF2C4662
:102A78000524AFE7042C18D0224809F09FFA2C4609
:102A8800A8E7052C02D0204809F098FA304609F04A
:102A980095FA44230022013BCED3FA54FBE701F018
:102AA8005DFC23462C461D4694E7254692E700BF69
:102AB800900100200044004031D1000813D20008E2
:102AC800A402002047D1000840010020BCCD000826
:102AD800BC0400201502002029D200084BD20008AF
:102AE80061D10008F40200207AD1000858010020C2
:102AF80094D10008E8020020AFD100085C01002052
:102B0800C7D10008E2D10008FAD1000808B5124B75
:102B180042F2107003F108021A6000225A601A7219
:102B280009F08CF8A8B100F51C5210320B4BC3E920
:102B3800042293F82020C3E9020022F07F0283F8E0
:102B480020200023064AC2E90033064AC2E90033BE
:102B580008BD0246EAE700BF4001002068010020E6
:102B6800EC020020D401002008B5044B986809F055
:102B78006DF8BDE80840024808F020BF6801002051
:102B880040010020002182B00B4B00915A6C42F4A6
:102B980080425A645A6C02F480420092009A019171
:102BA8001A6C42F080521A641B6C03F08053019334
:102BB800019B02B0704700BF00380240036882B032
:102BC800B3F1804F0BD100230193064B1A6C42F0EE
:102BD80001021A641B6C03F001030193019B02B00C
:102BE800704700BF00380240142210B504468AB06E
:102BF8000DEB0200002109F077F82368254A93427B
:102C080024D10021244B01915A6C4FF4C06042F04A
:102C180010025A645A6C032402F010020192019ABD
:102C280002911A6B05A942F001021A631B6B03F0AB
:102C380001030293029B0223CDE905030723CDE993
:102C48000843164802F012FB0AB010BD144A93421A
:102C5800FAD10021104B03911A6C124842F4003249
:102C68001A641A6C02F400320392039A04911A6BE4
:102C7800032142F008021A631B6B602203F0080369
:102C88000493049B0223CDE905230723CDE9081308
:102C980005A9D7E7001001400038024000000240B3
:102CA80000440040000C0240FEE7FEE7FEE7FEE7B6
:102CB800FEE770477047704701F0D8BA01207047A7
:102CC8001622024B4FF0FF301A607047AC6C0020A0
:102CD8001622014B1A60FEE7AC6C002070B50D4659
:102CE80014460E46731B9C4201DC204670BDAFF3B0
:102CF800008006F8010BF5E770B50D4614460E4640
:102D0800731B9C4201DC204670BD16F8010BFEF7D0
:102D180073FEF5E74FF0FF3070474FF40053002083
:102D28004B60704701207047002070470A4A0346ED
:102D3800116810B509B9094911601068084C0949AA
:102D48000344091B8B4281BF0C22074B4FF0FF3015
:102D58001A6098BF136010BD3C030020B86C0020B7
:102D68000004000000C00120AC6C00207047000087
:102D780010B50446084603F02DFD204607F05EFB1B
:102D8800204607F067FBBDE81040034B00220349CB
:102D9800186807F05BBB00BF48030020FD2D000842
:102DA8002DE9F34100244FF00408054698B20E4679
:102DB80017468DF804408DF8058003F0D5FC0322F2
:102DC800ADF806004146204604F0E6F8044670B126
:102DD8004368019A01461A6028463246BBB207F09A
:102DE800E1FA204602B0BDE8F04104F071B802B043
:102DF800BDE8F0812DE9F04717469846BDF82090C8
:102E080007F040FB054600283DD000221F4907F087
:102E1800EFF90646B8BB7B6893F801A0BAF1020F38
:102E280007D0284607F016FB3846BDE8F04704F0FF
:102E38004FB84FF40A7003F0F1FD044620B901467B
:102E48002846FFF795FFEFE7D8F800300246C0E9BB
:102E580083390F49C0E98566C0F800A0284607F005
:102E6800F5FA0C4B1E600C4EFEF7F8FB3046FEF7E9
:102E7800F7FB0A4B4A461E6041462846D4F81432EE
:102E8800FFF78EFFD0E7BDE8F08700BF30EA000803
:102E9800A92E00084003002000000D08440300206C
:102EA800F0B514461F4652892389054693420E46BB
:102EB800ADF5017D48D1042B49D96368588803F0E2
:102EC80053FCD5F814320133984240D16289042367
:102ED800043A694692B2204604F08AFA254B618981
:102EE8001A68043A0A441A600B1F1A46002BB8BF26
:102EF80001F1FF329B07C2F38F0234D169461E48A5
:102F0800FEF716FCD5F814320133C5F8143263897C
:102F18001A1FD5F818321344C5F81832D5F81432E8
:102F280039463046BDF81822FFF73AFF6389B3F5F2
:102F3800017F1BD229463046FFF71AFF204603F0CF
:102F4800C7FF01220D4B1A700DF5017DF0BD6368B6
:102F5800588803F009FCD5F8143201339842DDD1C2
:102F6800C5F81402DAE7013292B2C7E7204603F047
:102F7800AFFFE9E7400300204403002015020020CA
:102F880010B507F07FFA084C206058B14522074970
:102F980007F02EF9024628B920680549BDE8104017
:102FA80007F054BA10BD00BF4803002030EA0008FB
:102FB800FD2D0008014B0360704700BFDCD40008FA
:102FC80038B504460D460146034808F071FF034B27
:102FD80043F8245038BD00BFA3D400084C03002098
:102FE800024B586E03681B68184700BF4C0300204B
:102FF800024B186F03681B68184700BF4C0300207A
:10300800024BD3F8E80003681B6818474C030020FC
:10301800027D32B1002383750123437500230375B4
:103028007047837D0133DBB2052B92BF83758275B0
:103038004275F3E710B50446024B036000F032FA1C
:10304800204610BD20D5000810B50446FFF7F2FF52
:103058002046182108F05EFC204610BD10B5044635
:1030680000F02AFA034B0448236008F0A7FF204623
:1030780010BD00BF20D50008E0D400080123037567
:103088007047407D7047704710B50446044B40F8C0
:103098002C3B08F093FC204600F004FA204610BDB3
:1030A800D4D5000810B50446FFF7EEFF20464821A6
:1030B80008F030FC204610BD10B50446436CD86AB1
:1030C800D98B636A53B902F0B5F9227F6369216A23
:1030D800A2B1A8B91A680A431A6010BD6369226AC6
:1030E8001B681340227F12B91BB9002202E0002B93
:1030F800FBD10122BDE8104002F0A2B90028E9D1B5
:103108001A6822EA0102E7E700F1080373B50360D1
:10311800D1E900530446EE181DB916B10C4808F061
:1031280021FC0F2B019307D90022204601A908F0A2
:1031380023FC019B2060A36032462946206808F0E2
:1031480076FC0021019B22686360D15402B070BDF7
:10315800BCCD000800F1080373B504460D460360B2
:10316800D9B10846FDF736F80F2805EB000601909F
:1031780007D90022204601A908F0FEFB019B206028
:10318800A36032462946206808F056FC0021019BBE
:1031980022686360D15402B070BD014808F0E2FBB8
:1031A800BCCD0008F0B5044616460F461D4687B04C
:1031B80000F082F9144B666223600C9B04F12C0624
:1031C800A3619DF83430294623770E9B3046A362CD
:1031D8006761FFF799FF31466846FFF795FF44207E
:1031E80008F0A9FBD4E9092305466946FEF700FA69
:1031F8006846656408F0E2FB01232046A269934013
:10320800236207B0F0BD00BFD4D50008000000005D
:103218002DE9F0478C4C8AB08C492068FEF727FED0
:10322800FEF774FD01468A4808F042FED4F8008093
:1032380088494046FEF71BFEFEF768FD86490546AD
:103248004046FEF714FEFEF761FD844906464046F7
:10325800FEF70DFEFEF75AFD814907464046FEF788
:1032680006FEFEF753FD7F4904464046FEF7FFFD84
:10327800002800F08480037A03F07F03033B052BCA
:103288007DD8DFE803F06E6E030362AAD0E900324E
:10329800B3F1004F72F1000228BF00239846204680
:1032A8007149FCF78DFF002800F0A28020466F4985
:1032B800FCF786FF002800F09E8020466C49FCF74A
:1032C8007FFF002800F09A8020466A49FCF778FFC3
:1032D80000280CBF4FF004094FF000093846664932
:1032E800FCF76EFFB0FA80F4644BDFF894A1654FE9
:1032F800CAF80030644B31462A4664483B6008F0FF
:10330800D7FD304662496409FCF75AFF002878D196
:10331800294604A8FFF71EFF482008F00CFB0122ED
:103328000546CDE90149DAF80010CDF8008004AB74
:10333800FFF738FF04A808F041FB2946554B1868E9
:103348000AB0BDE8F04700F089BE4FF00041D0E96F
:1033580000320020994270EB020210D3C3F100083A
:103368009DE7016804A8FEF7F7FEDDE904029DF871
:103378002030072B06D0082B17D0062B0DD04FF086
:1033880000088CE74FF000434FF00008834278EBC9
:10339800020384D3C0F1000881E7B0F1004F72F155
:1033A800000300D30020804679E7DDE90689002282
:1033B80040464946384BFDF757FB0028DFD020A38D
:1033C800D3E9002340464946FDF744FB0028EAD0EC
:1033D80040464946FDF75CFBE5E7D0E90089002255
:1033E800404649462C4BFDF73FFB0028DBD0E6E77B
:1033F8004FF0010972E74FF002096FE74FF0030938
:103408006CE730462549FCF7DBFE064678B92946C5
:1034180004A8FFF79FFE482008F08DFACDE901497E
:10342800CDF8008005463246396804AB80E71C4871
:103438000AB0BDE8F04708F0C1BD00BFAFF3008097
:103448000000C0FFFFFFDF41D40100203CD5000889
:10345800B7CF0008C8D5000844D5000849D50008EA
:1034680050D5000859D5000862D5000845CE000897
:103478005ECE00086DD5000877D50008C902002087
:103488005402002018020020190300207CD50008EF
:1034980097D50008E80200200000E0C19ED500088A
:1034A800A4D500087047704710B50446142108F0E9
:1034B80031FA204610BD0000064B10B5002203600B
:1034C80001230446C0E90332034808F077FD20468B
:1034D80010BD00BF10D60008F0D500080369C26807
:1034E8000133934210B50446036104DB03681B698A
:1034F80098470023236123682046BDE810409B6855
:1035080018470368DB681847406803689B691847D1
:1035180070B504460D461646FFF74CFD044B284689
:103528002146C4E90036FFF74BFD204670BD00BFB9
:1035380034D600087047012380F86030704738B5EA
:1035480090F85F300446EBB1012390F85950226A95
:1035580005F00F00023803FA00F081B2A4F85C10FD
:10356800EB0984F85E3013882D069BB246BF83436F
:10357800138019434FF0000358BF118084F8593065
:1035880084F85F3094F860309BB10523E06904F15A
:103598002502C15C0133392B02F8011BF9D1352210
:1035A80004F1240104F1640002F066FD002384F8AC
:1035B800603038BD38B50125044680F85F50A83022
:1035C80000F0C0FF2A4604F1590104F16400BDE887
:1035D800384002F03FBE000010B50446024B0360BD
:1035E800FFF760FF204610BD70D6000810B50446EE
:1035F800FFF7F2FF20464FF4B47108F08BF920462C
:1036080010BD00002DE9F04F04460E4615468BB05C
:103618004FF0350AFFF750FF4FF03A09C4E9076544
:1036280000255A4B04F124082360524600214046E5
:1036380008F05AFB84F85A5084F85F5084F86050B8
:1036480084F81890082008F076F9224694F91810A2
:103658000646FFF75DFF142229460DEB020066615E
:1036680008F042FB4A4808F0A9FC4A4E4A4B02952A
:103678006366336B4FF4C06243F001033363336B0B
:10368800032103F001030293029B0223CDE90523E2
:1036980007234248CDE9081305A9079501F0E6FD7F
:1036A8000395736C04F1640743F010037364736C3F
:1036B800384603F010030393039B4FF4E133C4E946
:1036C8001A350C23C4E91C55C4E91E35C4F88050CA
:1036D80002F04EFC0495336B4FF0006B43F480030B
:1036E8003363336B4FF4806603F480030493049BC5
:1036F8002B4BC4E92C55C4E92A3B04F1A803C4E9BF
:103708002E65C4E93055C4E932551846019300F0D6
:1037180061FE019B2A462946C4F89C304846C4F8F5
:10372800E07000F0DBFD484600F00AFE1D4BC4E9DE
:103738004665C4E9423B4023C4E944354FF48073ED
:10374800C4F82051C4E94935C4F82C5104F58475EE
:10375800284600F03FFEC4F89850C4F8407112485B
:1037680008F02CFC4046114908F084FC64235246BA
:103778004146384602F02AFC0122384604F1590134
:1037880002F068FD20460BB0BDE8F08F70D6000847
:1037980038D60008003802400010014000000240FE
:1037A80040640240B86402404ED6000863D6000860
:1037B80038B51A4B1968C1B10C68194D64B1E16884
:1037C80021B12846FCF7FCFC014638B1B4F90A30AF
:1037D80013B104EB0314F1E7002106E0237A03F0A8
:1037E8007F03033B012B00D821680E4808F060FBDB
:1037F8000D4D0E4B4FF4B4702B6008F09CF8044646
:103808000B4B2A681968FFF7FDFE0A4B21461C601E
:10381800094B1868BDE8384000F020BCD4010020EE
:103828003CD50008B7CF0008500200201D03002037
:103838004C0000203C010020E802002070470000F6
:1038480010B50446024B0360FFF72CFE204610BD5E
:103858009CD6000810B50446FFF7F2FF20467021F9
:1038680008F058F8204610BDF8B50446C56D216E1D
:103878002868FDF7F7FB50BB2D68164E28463146E1
:10388800FDF718FC08B1266607E0002628463146F1
:10389800FDF7F2FB0028F6D12566A06EFDF7F6F9D4
:1038A800FCF704FE0646206E0F46FCF7FFFD0022DB
:1038B800094BFCF77DFF0B46024639463046FCF7BC
:1038C8004DFEFDF70DF9054BE06608B95863F8BDE4
:1038D8000138FBE70000C84200005940000C0040D6
:1038E8002DE9F04105460C4690B0FFF7E5FDEC6583
:1038F80000242E4B21462B601C2209A82C4ECDE912
:10390800024408F0F1F92146142204A808F0ECF961
:103918000094336C3C2243F008033364336CDFF8C3
:10392800948003F008030093009B42F21073C5E9EA
:1039380019233B23C5E9058342F20F7305F11407E8
:10394800C5E908343846EC61EC6202F007F902A9CF
:103958003846CDE9024402F037FA6023224609A925
:10396800384609930B940D9402F05AF90194336B7D
:10397800012143F001033363336B0F4803F0010364
:103988000193019B0223CDE9041304A90893CDE90F
:10399800064401F06BFC2146384602F013FA28462B
:1039A800C8F8344010B0BDE8F08100BF9CD60008CC
:1039B80000380240000C00400000024000000000F7
:1039C800F0B5494C4949206887B0FEF750FA0146DE
:1039D80038B1037A03F07F03033B012B8CBF00212E
:1039E8000168434808F064FA42492068FEF73FFA44
:1039F800002841D0037A03F07F03033B052B3BD813
:103A0800DFE803F02C2C03030B5FD0E90043B4F18B
:103A1800004F73F100030AD32EE04FF00042D0E9C3
:103A280000430020A24270EB030354D36442324B9C
:103A3800E21D324E03EB820346F82430702007F073
:103A48007AFF054656F82410FFF74AFF29462C4B03
:103A5800186807B0BDE8F04000F000BB0168684690
:103A6800FEF77AFBDDE900429DF81030072B05D000
:103A7800082B0FD0062B08D00024D8E74FF00043BE
:103A88000020A34270EB0203CFE7B4F1004F72F1BC
:103A98000003C0E7DDE90267002230463946194BCA
:103AA800FCF7E2FF0028E7D00DA3D3E90023304656
:103AB8003946FCF7CFFF70B130463946FCF7E8FFCE
:103AC80009E0D0E900670022304639460D4BFCF783
:103AD800CBFF0028E8D10446A9E700BFAFF3008078
:103AE8000000C0FFFFFFDF41D40100203CD50008E3
:103AF800B7CF00088CD60008A40200205802002086
:103B0800E80200200000E0C17047000010B504463C
:103B1800064B40F8343B07F051FF04F11C0007F056
:103B28004DFF2046FFF7BEFC204610BDE4D6000836
:103B380010B50446FFF7EAFF20467C2107F0EAFEAD
:103B4800204610BD00F1080373B50360D1E90053A6
:103B58000446EE181DB916B10C4807F003FF0F2BE9
:103B6800019307D90022204601A907F005FF019B10
:103B78002060A36032462946206807F058FF0021DC
:103B8800019B22686360D15402B070BDBCCD0008AF
:103B980000F1080373B504460D460360D9B1084621
:103BA800FCF718FB0F2805EB0006019007D9002247
:103BB800204601A907F0E0FE019B2060A360324681
:103BC8002946206807F038FF0021019B22686360BE
:103BD800D15402B070BD014807F0C4FEBCCD000846
:103BE8002DE9F041044616461D4686B00F46FFF7FC
:103BF80063FC294B04F11C08236029464046666192
:103C080004F13406FFF79EFF30460C99FFF79AFF40
:103C18000E9B414663650F9B6846E365109B4FF01A
:103C2800000823660D9B2367FFF78CFF442007F0ED
:103C380082FE054601226946FDF7C0FC68466567B5
:103C480007F0BCFE31466846FFF77CFF442007F0CA
:103C580072FE054601226946FDF7B0FCA5670125FD
:103C6800684607F0ABFE206FC4F8648005FA00F0E0
:103C7800FDF710F806463846FDF70CF801463046C1
:103C8800FDF710F9A06620466369A4F84C809D40B2
:103C9800A56106B0BDE8F081E4D6000810B5036E52
:103CA80082691B7804461340002B14BF01230023AC
:103CB80080F84C3033D0436D18682065FCF7EAFF74
:103CC800A16EFDF73BF8FDF7FFF90346616EE0666C
:103CD8004218206F002B81EA0201626642FA00F264
:103CE800A265D4BF0022012284F84D20012202FAE5
:103CF80000F0084213D0A16F002BD8BF0022C86A79
:103D0800C98B01F09DFB636F0122D98BD86A01F042
:103D180097FBE36D626E1A60012384F84E3010BD84
:103D2800FFF7BCBF436F10B5D98B04460022D86A91
:103D380001F086FB002384F84E3010BDFFF7F2BF78
:103D48002DE9F047664D92B066492868FEF78FF86E
:103D5800FDF7DCFF0146644808F0AAF863492868C3
:103D6800FEF785F80CAE002800F08580037A03F092
:103D78007F03033B052B0BD8DFE803F069690303D6
:103D88000CA0D0E90043B4F1004F73F100030BD34A
:103D9800002409E04FF00042D0E900430020A2428D
:103DA80070EB0303F4D364422D6851492846FEF7AB
:103DB8005EF8FDF7ABFF4F4907462846FEF757F870
:103DC800FDF7A4FF05464C4B611CDFF8308103EB7F
:103DD800810248F824204A4ADFF8289102EB810240
:103DE800DFF824A149F824202433394606A8CAF864
:103DF8000030FFF7CDFE29463046FFF7C9FE7C208C
:103E080007F099FDDAF800300546049359F8243094
:103E18003E49039358F82430224602931623CDE9ED
:103E2800006306AB0968FFF7DBFE394C304607F044
:103E3800C5FD06A807F0C2FD2946206800F00EF966
:103E48002946206812B0BDE8F04700F010B90168B3
:103E58003046FEF781F9DDE90C029DF84030072B6A
:103E68000BD0082B12D0062B92D1B0F1004F72F173
:103E7800000300D30020044696E74FF000430024D7
:103E8800834274EB02038FD344428DE7DDE90E8948
:103E98000022404649461F4BFCF7E6FD0028EAD0C1
:103EA8000DA3D3E9002340464946FCF7D3FD00287B
:103EB800E1D040464946FCF7EBFDDCE7D0E9008954
:103EC800002240464946134BFCF7CEFD00283FF43C
:103ED8005FAFE5E7AFF300800000C0FFFFFFDF4101
:103EE800D40100203CD50008B7CF0008B8D6000898
:103EF800C5D60008CED60008A4020020380200204B
:103F0800F5020020200200201C02002048000020AA
:103F1800580100200000E0C110B5027200220446DA
:103F2800C0E90522C0E90722C0E909224160C3604F
:103F3800C2621946024807F0BBFF204610BD00BF09
:103F480000D7000837B50446142007F0F4FCE368EE
:103F580094F9082061680094054600F0F3F825609C
:103F680003B030BD10B504464369E362E36AA26951
:103F7800934205D01868FFF7B1FAE36A0433F4E70F
:103F8800237C5BB1236AE362E36A626A934205D0E9
:103F98001868FFF7B6FAE36A0433F4E710BD0000C7
:103FA8002DE9F84FD0E900896FF060439346A9EBFB
:103FB8000802B3EBA20F07468A464FEAA20402D1D1
:103FC8001E4807F0D2FC012C224638BF0122A41853
:103FD800A1EB08052ED27CB39C4228BF1C46A0004A
:103FE80007F0A9FC0646DBF80030002D735104DD0C
:103FF8002A464146304607F05DFEA9EB0A0904351A
:10400800B9F1000F354404DD4A465146284607F009
:1040180043FE4D44B8F1000F05D0B9684046A1EB06
:10402800080107F077FC06EB8404C7E90065BC606B
:10403800BDE8F88F1C46D2E72646D4E714D7000817
:104048000A4610B5D0E90114A14204D0126841F81B
:10405800042B416010BDFFF7A3FFFBE707B5143041
:10406800019101A9FFF7ECFF03B05DF804FB13B55C
:1040780004460191203001A9FFF7E2FF01232374D0
:1040880002B010BD0069FFF76DBF000013B54368AB
:10409800254904468B4231D1244807F009FF002303
:1040A8000093234B5A6C42F001025A645B6C03F094
:1040B80001030093009B1F4B1A686368596800212D
:1040C80059609962E168B2FBF1F2013ADA620122C1
:1040D8005A61DA6019681143196094F90830002BA5
:1040E80006DB590903F01F039A40134B43F82120BC
:1040F800124802B0BDE8104007F060BFB3F1804F2E
:10410800DBD10F4807F0D4FE00230193084B1A6C4B
:1041180042F001021A641B6C03F001030193019B36
:10412800044B1A685208C8E7000001402ED700085F
:10413800003802405400002000E100E056D7000893
:1041480042D7000838B5C360049B04460361416048
:104158000272082007F0EFFB0546224694F9081082
:1041680000F00AF820462560FFF790FF204638BD8A
:104178004068FFF787BF000070B504460D46164635
:10418800FEF718FF044B28462146C4E90036FEF71F
:1041980017FF204670BD00BF70D70008DFF834D085
:1041A8000D480E490E4A002302E0D458C450043387
:1041B800C4188C42F9D30B4A0B4C002301E013605E
:1041C8000432A242FBD3FEF7D1FD07F013FDFEF740
:1041D8009BFB704700C0012000000020D000002099
:1041E80024ED0008D0000020B46C0020FEE7000099
:1041F80038B50E4B054618784FF47A73B3FBF0F3D5
:104208000B4A1068B0FBF3F000F0BAF8044658B94E
:104218000F2D09D8024629464FF0FF3000F05EF80E
:104228002046044B1D6038BD0120FCE758000020E3
:10423800540000205C00002008B50B4B03201A68CE
:1042480042F400721A601A6842F480621A601A68AE
:1042580042F480721A6000F02FF80F20FFF7C8FFB1
:10426800FEF790FC002008BD003C0240034A044BC6
:1042780011681B780B441360704700BF8C04002042
:1042880058000020014B1868704700BF8C040020BC
:1042980037B50190FFF7F6FF0546019C631C1EBF6A
:1042A800044B1B78E418FFF7EDFF431BA342FAD336
:1042B80003B030BD5800002007490302CA6803F460
:1042C800E06322F4E0621204120C134343F0BF636C
:1042D80043F40033CB60704700ED00E0164B30B577
:1042E800DC68C4F30224C4F10703251D042B28BF8E
:1042F8000423062D4FF0FF3598BF002405FA03F379
:1043080088BF033C21EA0303A34005FA04F422EA28
:104318000402002843EA0203ACBF00F16040074AE8
:104328004FEA0313DBB2ABBF00F5614000F00F00AA
:1043380080F80033135430BD00ED00E014ED00E0C8
:10434800002808DB0123420900F01F0003FA00F0EF
:10435800014B43F82200704700E100E0BFF34F8FA4
:104368000549064BCA6802F4E0621343CB60BFF309
:104378004F8F00BFFDE700BF00ED00E00400FA0525
:104388000138B0F1807F0BD24FF0E023F021054ACD
:10439800586182F823100020072298611A6170473B
:1043A8000120704700ED00E0036802461820D9B2EA
:1043B8001039B1FBF0F010B5054C5F29205CD065D1
:1043C80023F47F7020F0030088BF0430906510BD8F
:1043D80074D7000870B50446FFF754FF0546002C53
:1043E80071D0022384F835300023226884F83430F1
:1043F800136823F00103136021680B68D8072ED4D3
:104408000B68324DA0691D40D4E901231343E268CB
:1044180013432269134362691343E2690343134355
:10442800226A1343626A2B43042A02BFD4E90B565B
:1044380035432B430B604B69042A23F0070343EAF7
:10444800020332D1A26AE56A134375B390B9012A0F
:1044580020D032F0020228D1EA0126D51DE0FFF76C
:1044680011FF401B0528C7D920230320636584F862
:10447800350070BDB0F5005F13D1032A15D801A02F
:1044880050F822F0A344000861440008A34400083F
:104498009D440008B5F1C07F07D140230120636522
:1044A800E5E7022AF9D9032AD6D04B612046FFF75F
:1044B8007BFF3F23E26D934083600020012360650A
:1044C80084F83530D5E70120D3E700BF3F8010F0EE
:1044D80070B590F83440866D012C31D0012480F8F5
:1044E800344090F835400025012C4FF0020425D1C6
:1044F80080F8354004684565256825F480252560E1
:1045080063608368402B4FF03F030EBFA260A16039
:10451800E260C26D08BFE1609340B360236843F076
:1045280016032360036C1BB1236843F00803236060
:104538000020236843F00103236070BD80F83450E5
:104548000220FAE70023F7B5082201935B4B856D3B
:104558001F68C36D2E689A40324204460CD0016829
:104568000868400708D5086820F004000860AA60B9
:10457800626D42F00102626501229A40324208D01F
:1045880021684969090641BFAA60626D42F00202CA
:10459800626504229A40324208D021680968880777
:1045A80041BFAA60626D42F00402626510229A401F
:1045B800324210D02368196809070CD5AA601A6816
:1045C800500337D51B68190301D4236C00E0A36C92
:1045D8000BB1204698472022E16D8A4032423AD0FA
:1045E80023681868C60636D5AA6094F83520052AC7
:1045F8001A6827D122F016021A605A6922F080023E
:104608005A61226C0AB9A26C1AB11A6822F008021F
:104618001A603F238B40AB60012384F835300023B8
:1046280084F83430236D002B45D0204603B0BDE814
:10463800F04018471A68D2055EBF1A6822F00802CF
:104648001A60C2E7500327D51B68190331D4636C7D
:104658000BB120469847636D6BB3636DDA0719D5C4
:104668004FF41653B7FBF3F70523226884F8353067
:10467800136823F001031360019B0133BB420193CC
:1046880002D81368DB07F7D4012384F835300023F8
:1046980084F83430E36CC6E71A6812F4807208D1E3
:1046A800196821F010011960012384F8342084F876
:1046B8003530E36BCCE703B0F0BD00BF54000020F9
:1046C8004FF4FA52064B82B01B68B3FBF2F3019326
:1046D80000BF019B5A1E0192002BF9D102B070470E
:1046E80054000020002307B50193036803F58053A5
:1046F8009A6942F480129A619B690193FFF7E0FF7F
:104708000368019A03F580539A6103B05DF804FBCE
:1047180070B5044629B14FF480434FF40062C0E9F4
:104728000232E3692268002B08BF4FF48061D4E9A4
:10473800023518BF00212B4310680B432B49014059
:104748000B4343F40073136001201568FFF7A0FDC5
:104758004022236801201D605A605D68FFF798FDBC
:10476800236801205D6000259D60DD609A6922F064
:10477800BE021204120C42F080029A619E69FFF791
:1047880087FD236801209E61DD61DD69FFF780FDFB
:104798002268174BD56102F58052916901200B40C0
:1047A80043F0087343F0040393619569FFF770FDC4
:1047B8002368104A03F580539D6101201A601D6823
:1047C800FFF766FD2368A26903F580531D60012A7F
:1047D80001BFDA6942F4803242F04002DA6162696C
:1047E800054B9188196412685A6470BD0F8120FFC7
:1047F800233FDEF88020C10200800240F0B590F827
:104808004540012C4FF0020433D001254FF48017A6
:1048180080F8455040F2F45C002580F84440C162BD
:1048280001F1200403F1FF3E9D420BD1036803F51B
:1048380080531961012380F84430002380F8453003
:104848001846F0BD0CFB052644F8186CC66944F8F8
:10485800207C2EB954F8206C46F4400644F8206CAD
:10486800AE4594BF0E462646013544F8146C2034F4
:10487800DAE72046E5E72DE9F04190F84540012CBC
:104888004FF0020430D001254FF0004680F8455023
:1048980044F2F457002540F2F45C80F84440816209
:1048A80001F1200403F1FF3EAB420CD1036803F58C
:1048B8008053D960012380F84430002380F84530C4
:1048C8001846BDE8F0810CFB052844F8188CAE4565
:1048D80094BF8846A04644F8206C44F81C7C44F8F1
:1048E800148C01352034DFE72046EAE7F0B590F86C
:1048F8004530012B4FF0020367D0012280F8443085
:1049080080F8452029B980F8442080F845101046E1
:10491800F0BDC36A1C68002C06DA122380F8443004
:10492800002380F84530F2E740F2F454A1422FD931
:10493800B1FBF4F204FB121444B30132244C01F22B
:10494800F45104FB021140F2F4560024C1F30C01A7
:10495800571E1D6825F040551D601CB91D6845F09F
:1049680080551D60A74208BF1D6804F1010404BFFB
:1049780045F000551D601D685E6045F0004508BFA4
:10498800596094421D60DB68E3D10DE0012AD5D15E
:104998001A68C1F30C0142F040521A601A68596053
:1049A80042F000421A60DB68C362036803F5805373
:1049B8005A69520741BF04225A6100225A600123F2
:1049C80080F84430002380F845301846A0E700BF3F
:1049D8000CFAFFFF30B590F84530012B4FF0020379
:1049E80023D0012480F84430836A80F845401A684F
:1049F800002A27DB1A68D96812F4807217D0826BF4
:104A080043632244A24208BF03631B688263C3F363
:104A18000D43043BC363036B9B68816203640123FA
:104A280080F84430002380F84530184630BD1D68B2
:104A38008162AD0555BF836BC0E90C3201338463D5
:104A480058BF83630123002280F8443080F8452052
:104A5800EBE7F8B590F844300646822B154630D07F
:104A6800822380F84430348A0368E4021869890193
:104A780001F4F861A4B200F01C000C43044344F0B4
:104A880001041C61FFF7FEFB074614F0010007D183
:104A980033685B699BB22B60012386F844300CE0D5
:104AA800FFF7F0FBC01BB0F5803F07D3012386F862
:104AB80044300023032086F84530F8BD33681C696C
:104AC800E3E70220F9E770B590F844300546422B39
:104AD8002ED0422380F844302C8A0368E4021869F7
:104AE800890101F4F861A4B200F01C000C430443EE
:104AF80092B244F003045A611C61FFF7C3FB0646F7
:104B080014F0010003D1012385F844300CE0FFF7CD
:104B1800B9FB801BB0F5803F07D3012385F84430EB
:104B28000023032085F8453070BD2B681C69E7E732
:104B38000220F9E70023F7B504460093002800F0A7
:104B4800D88090F8443003F0FF021BB980F8452064
:104B580001F038FC00230193674B5A6C42F4804201
:104B68005A645B6C03F480430193019B634B5A685E
:104B780022F400025A605A68216A0A435A6023687C
:104B880003F580531A6842F001021A60FFF77AFBB6
:104B98000546236803F580521268D0071DD41D69A5
:104BA80000F0B2FE564B574A0344934225F01C05C9
:104BB80022D245F0080523684FF400421D61002108
:104BC8002046FFF780FF054630B301250121204626
:104BD800FFF79EFD84F844500BE0FFF753FB401BA2
:104BE800B0F5FA7FD5D90325002384F8445084F81A
:104BF8004530284603B0F0BD434B444A0344934232
:104C080002D845F00C05D6E7414B424A034493428B
:104C180028BF45F00405CEE7FF20FFF739FB63689E
:104C2800002B54D0FFF72EFB41F2883706466A4620
:104C380001212046FFF70DFFFFF724FB801BB84238
:104C48000BD901212046FFF763FD012384F8443086
:104C58000023032584F84530CBE7009B5907E6D5A8
:104C68004FF4805200212046FFF72DFF0028ACD1D9
:104C7800FFF708FB41F2883706466A4601212046BD
:104C8800FFF7E7FEFFF7FEFA801BB842D9D8009B72
:104C98009A06F2D56A4610212046FFF7DAFE002868
:104CA80093D1009B13F0040218BF4FF400629B07D6
:104CB80058BF4FF48043E2604CBFA060A36000215E
:104CC8002046FFF725FD012384F8443091E7D4E915
:104CD8000223520842EAD3022946204692B2FFF73D
:104CE800F2FE00287FF471AF40F6FF70FFF7D0FAAC
:104CF800E5E701257DE700BF0038024000380140A4
:104D080000D3CEFEC0E1E40040F1E9FD3F787D012B
:104D180000796CFC005A620237B590F845300224DD
:104D2800012B2FD080F8444001250024036801940A
:104D380080F845501A6842F008021A601B6801930F
:104D4800FFF7BEFC019A03681A6000941A6842F0E3
:104D580004021A601B680093FFF7B2FC0368009A0C
:104D68001A60FFF7BFFC036803F580539A6942F4A1
:104D780000529A619A6942F002029A6180F844509E
:104D880080F84540204603B030BD37B590F845302F
:104D98000224012B2FD00125036880F8444080F8B5
:104DA800455003F58052946924F400549461946941
:104DB80024F002049461002401941A6822F0040289
:104DC8001A601B680193FFF77BFC0368019A1A605D
:104DD800FFF788FC036800941A6822F008021A603A
:104DE8001B680093FFF76CFC009A03681A6080F850
:104DF800445080F84540204603B030BDF8B590F8DF
:104E080045300546012B0C464FF0020071D00126B3
:104E180085F844002A6885F84560D5E902700029BC
:104E280068D01368DFF8E8C00CEA030CD1E9003158
:104E38000B43A1680B43E1680B4321690B4361698C
:104E48000B43A1690B43E1690B43216A0B43616A78
:104E58000B43A16A0B433B43034343EA0C03136030
:104E680030461768FFF714FAD4E90B310B43616B2E
:104E78002A680B43A16B17600B43E16B30460B4369
:104E8800216C0B43616C0B43A16C0B435360576857
:104E9800FFF7FEF92A68E36C57609360236DD360CF
:104EA800D4E916300343206E91690343606E21F004
:104EB800BE010343A06E09040343606D090C43EA75
:104EC80000430B43936130469769FFF7E1F9D4E952
:104ED8001B212B680A439F613046DA61DC69FFF7C2
:104EE800D7F92B68DC610123002085F8443085F868
:104EF8004500F8BD116847EA000321F490410B43CF
:104F0800136030461468FFF7C3F92B681C60EAE7A2
:104F18000F8120FF094910B50C6924F440740C6115
:104F28000C6944F440740C610C6944F001040C6190
:104F38000260BFF36F8F436010BD00BF003C0240AA
:104F4800074B1A6922F440721A611A6942F4007216
:104F58001A611A6942F001021A610160704700BFC4
:104F6800003C0240074B1A6922F440721A611A6920
:104F780042F480721A611A6942F001021A610180D2
:104F8800704700BF003C02401A4BDA68D20606D5CB
:104F98001949CA6942F00802CA611022DA60DA685F
:104FA800900606D51449CA6942F00402CA61202253
:104FB800DA60104BDA68510606D50F49CA6942F023
:104FC8000202CA614022DA60DA68120606D50A4986
:104FD800CA6942F00102CA618022DA60054AD368D0
:104FE8009B0706D50449CB6943F01003CB61022324
:104FF800D3607047003C024090040020064B1A69B9
:10500800002ABFBF054A5A6002F188325A60BABF07
:105018001869C00F00207047003C02402301674513
:105028000022114B70B50446DA61FFF72BF90646EA
:105038000E4DEB68DA030CD4EB68DB0744BF0123A1
:10504800EB60E86810F0F20007D0FFF79DFF012041
:1050580003E0611CEDD00CB9032070BDFFF712F915
:10506800801BA042E5D9F7E790040020003C0240ED
:105078002DE9F0411F4E9846337E0746012B0D4619
:10508800144635D001234CF250303376FFF7C8FF71
:10509800B0B9CFB9184BE4B21A6922F440721A6158
:1050A8001A691A611A6942F001021A612C704CF2ED
:1050B8005030FFF7B5FF104A136923F0010313615D
:1050C80000233376BDE8F081012F04D12846A1B230
:1050D800FFF748FFEBE7022F04D121462846FFF7E8
:1050E8002FFFE4E7224643462846FFF713FFDEE793
:1050F8000220E7E790040020003C0240074B1969B2
:1051080021F440711961196941F0040119611A69A2
:1051180042EA002242F480321A617047003C0240A1
:1051280039B1012921D002290CBF4FF400714FF485
:1051380040710F4B1A6922F440721A611A691143BF
:1051480019611A6922F0F8021A61F82292FAA2F299
:10515800B2FA82F219699040084340F002001861DF
:105168001A6942F480321A6170474FF48071E0E79F
:10517800003C0240144B1A6891050FD51A6822F4B6
:1051880000721A601A6842F400621A601A6822F4FF
:1051980000621A601A6842F400721A600A4B1A68B0
:1051A80052050FD51A6822F480621A601A6842F410
:1051B80080521A601A6822F480521A601A6842F4FF
:1051C80080621A60704700BF003C02402DE9F84336
:1051D800DFF89080054698F818300F46012B3FD02D
:1051E80001234CF2503088F81830FFF719FF0446B5
:1051F800A0B94FF0FF333B602B68012B14D1287CFA
:10520800FFF77CFF4CF25030FFF70AFF0446164ABE
:10521800136923F004031361FFF7ACFF002388F838
:1052280018302046BDE8F883AE68DFF83C90D5E931
:1052380002231344B342EFD93046297CFFF770FFAD
:105248004CF25030FFF7ECFED9F8103023F0FA0397
:10525800C9F8103010B104463E60DDE70136E6E7D4
:105268000224DEE790040020003C024000232DE9E0
:10527800F74FDFF8B4916D4C0A6832FA03F502D1A2
:1052880003B0BDE8F08F4FF0010E0EFA03FE1EEAE0
:10529800020200F0B8804FF0030C4E684FEA430852
:1052A80006F003056F1E0CFA08FC012F6FEA0C0CC0
:1052B80034D8876807EA0C0ACF6807FA08F747EA7C
:1052C8000A078760476827EA0E0EC6F300179F4053
:1052D80047EA0E074760C768022D07EA0C0E8F6879
:1052E80007FA08F747EA0E07C76019D14FF00F0E03
:1052F8004FEAD30A00EB8A0A03F0070BDAF82070AA
:105308004FEA8B0B0EFA0BFE27EA0E0E0F6907FA0F
:105318000BF747EA0E07CAF8207001E0032DDAD12F
:10532800076805FA08F507EA0C072F4316F4403F0B
:10533800076068D000254FF00F0C0195D9F844702C
:1053480003F0030E47F48047C9F84470D9F8447055
:105358004FEA8E0E07F480470197019F23F0030759
:1053680007F1804707F59C37D7F808800CFA0EFC40
:1053780028EA0C0CDFF8B880404523D005F18045B9
:1053880005F50135A84240D005F58065A8423ED014
:1053980005F58065A8423CD005F58065A8423AD05D
:1053A80005F58065A84238D005F58065A84236D055
:1053B80005F58065A84234D005F58065A8420CBF84
:1053C8000825092505FA0EF545EA0C05BD60D74301
:1053D800256816F4803F0CBF3D401543256065687D
:1053E80016F4003F0CBF3D4015436560A56816F4F0
:1053F800801F0CBF3D401543A560E568B60254BF49
:105408003D401543E560013336E70125DAE702251B
:10541800D8E70325D6E70425D4E70525D2E70625EE
:10542800D0E70725CEE700BF00380240003C014026
:10543800000002400369194214BF01200020704790
:105448000AB1816170470904FBE700002DE9F341C7
:10545800044640B30368DD0710D42368980745D491
:1054680023681A0700F1918023685B0700F1B18077
:10547800A069002840F00281002027E09D4B9A682F
:1054880002F00C02042A07D09A6802F00C02082ADB
:105498000BD15A68510208D5964B1B689A03DCD584
:1054A8006368002BD9D1012010E022799A706368D3
:1054B8007BB1FEF7E7FE05468E4E33689B03CCD4DE
:1054C800FEF7E0FE401B6428F7D9032002B0BDE8D0
:1054D800F081FEF7D7FE0546864E33689F03BCD59C
:1054E800FEF7D0FE401B6428F7D9EEE7814B9A6897
:1054F80012F00C0F07D09A6802F00C02082A16D195
:105508005B685E0213D47B490B689D0702D5E3688C
:10551800012BC8D1F823086893FAA3F3B3FA83F2EE
:105528002369934020F0F80213430B6098E7E26880
:10553800714BDAB101221A60FEF7A4FE06466D4DE2
:105548002B6898070CD5F823296893FAA3F3B3FAC4
:1055580083F22369934021F0F80213432B607FE71D
:10556800FEF790FE801B0228EAD9AEE71A60FEF724
:1055780089FE05465F4E336899077FF571AFFEF7E0
:1055880081FE401B0228F6D99FE762695A4B82B117
:105598000122C3F8802EFEF775FE0546554E736F3F
:1055A8009F073FF561AFFEF76DFE401B0228F6D955
:1055B8008BE7C3F8802EFEF765FE05464D4E736FE8
:1055C80098077FF551AFFEF75DFE401B0228F6D91C
:1055D8007BE7484B1A6C12F0805226D101270192C2
:1055E8001A6C42F080521A641B6C03F080530193CA
:1055F800019B424D2B6843F480732B602B68D905BF
:1056080015D5237A3B4D85F87030A368FBB9FEF7B2
:1056180039FE41F2883806462B6F98071FD5FEF7EA
:1056280031FE801B4045F7D94FE70027E1E72B689B
:1056380043F480732B60FEF725FE06462B68DA05D7
:10564800DFD4FEF71FFE801B0228F7D93DE7FEF7DF
:1056580019FE41F2883806462B6F9B0708D5002FA4
:105668003FF406AF234A136C23F080531364FFE61C
:10567800FEF708FE801B4045EED926E71D4DAB68B6
:1056880003F00C03082B4ED000221B4B02281A668D
:105698003CD1FEF7F7FD06462B68990130D46A68BD
:1056A800D4E9073122F0746222F45F3222F47F7267
:1056B8000B4322F003021343626A43EA8213E26A4D
:1056C80043EA0263A26A5208013A43EA024301220A
:1056D8006B60094B074D1A66FEF7D4FD04462B682C
:1056E8009A013FF5C9AEFEF7CDFD001B6428F6D937
:1056F800EBE600BF0038024000004742007000405F
:10570800FEF7C0FD801B6428C6D9DEE6FEF7BAFDA9
:1057180004462B689B017FF5AFAEFEF7B3FD001B77
:105728006428F6D9D1E601283FF4D0AE6B68E26967
:1057380003F4800191427FF4B6AE216A03F03F0280
:105748008A427FF4B0AE616AC3F388128A427FF45A
:10575800AAAEA16A03F440328A427FF4A4AEE26A98
:1057680003F0706393423FF487AE9CE6134908B593
:105778008B6803F00C03042B1CD0082B1CD14A683F
:105788004B68496813F4800314BF0D480D48C1F3F2
:10579800881118BF0023A1FB000102F03F02FBF7AC
:1057A800B9FC064B5B68C3F3014301335B00B0FBF4
:1057B800F3F008BD0248FCE70248FAE70038024067
:1057C80040787D010024F4002DE9F0410D4604469F
:1057D80010B90120BDE8F081464B1A6802F00F02AB
:1057E8008A422ED32268970733D4D00747D4414B37
:1057F8001A6802F00F02AA426AD82268510770D4C8
:10580800130707D53C4A2169936823F4604343EAA8
:10581800C1039360FFF7AAFF374BF0229B6892FA07
:10582800A2F2B2FA82F203F0F003D340334AD35C17
:10583800D840334B1860334B1868FEF7D9FC00206A
:10584800C8E7CAB21A701B6803F00F038B42C0D1B5
:10585800C8E7294B12F0040F1EBF996841F4E051C4
:105868009960160742BF996841F4604199602249DE
:10587800A0688B6823F0F00303438B60B5E7616889
:105888001D4B01291A681BD112F4003FA1D09A6858
:1058980041F2883822F003020A439A60FEF7F2FCCC
:1058A8000646154FBB68626803F00C03B3EB820F22
:1058B8009DD0FEF7E7FC801B4045F3D9032089E71C
:1058C800022902D112F0007FE0E712F0020FDDE7B3
:1058D800EAB21A701B6803F00F03AB427FF479AF8A
:1058E8008BE70549E0688B6823F4E05303438B603A
:1058F80086E700BF003C0240003802408BD4000815
:10590800540000205C000020014B1868704700BF5D
:1059180054000020084B4FF4E0529B6892FAA2F220
:10592800B2FA82F203F4E053D340044AD35C044A47
:105938001068D840704700BF003802409BD4000868
:1059480054000020084B4FF460429B6892FAA2F280
:10595800B2FA82F203F46043D340044AD35C044AA7
:105968001068D840704700BF003802409BD4000838
:1059780054000020036A70B523F001030362036A30
:10598800446882690D6822F073022A438D6823F007
:1059980002032B430E4DA84202D00E4EB04210D146
:1059A800CE6823F008033343A84223F0040302D04F
:1059B800084DA84205D1D1E9055624F44074354371
:1059C8002C43446082614A684263036270BD00BF31
:1059D8000000014000040140036A70B523F480739D
:1059E8000362036A4468C2690D6822F073022A439D
:1059F8008D6823F4007343EA0523114DA84203D0B0
:105A080005F58065A84214D1CD6823F4006343EA04
:105A180005230B4D23F48063A84203D005F5806568
:105A2800A84206D1D1E9055624F44054354344EA46
:105A380005144460C2614A68C263036270BD00BF56
:105A480000000140036A30B523F480530362036AFF
:105A58004468C2690D6822F4E64242EA05228D686C
:105A680023F4005343EA0533084DA84203D005F553
:105A78008065A84204D14D6924F4804444EA851421
:105A88004460C2614A680264036230BD000001409C
:105A9800304A0368904212D0B0F1804F0FD0A2F57F
:105AA8007C4290420BD002F58062904207D002F50A
:105AB8008062904203D002F57842904219D14A6838
:105AC80023F070031343234A904229D0B0F1804F4A
