:020000040800F2
:200000002841012061860008698600086B8600086D8600086F860008718600080000000080
:2000200000000000000000000000000011020008758600080000000089020008C502000840
:200040007B8600087B8600087B8600087B8600087B8600087B8600087B8600087B86000858
:200060007B8600087B8600087B8600087B8600087B8600087B8600087B8600087B86000838
:200080007B8600087B8600087B8600087B8600087B8600087B8600087B8600087B86000818
:2000A0007B8600087B8600087B8600087B860008951B0008F71B00087B8600087B86000838
:2000C0007B8600087B8600087B8600087B8600087B8600087B8600087B8600087B860008D8
:2000E0007B8600087B8600087B8600087B8600087B8600087B8600087B8600087B860008B8
:200100007B8600087B8600087B8600087B8600087B8600087B8600087B8600087B86000897
:200120007B8600087B8600087B8600087B8600087B8600088B3700087B8600087B860008B6
:200140007B8600087B8600087B8600087B8600087B8600087B8600087B8600087B86000857
:200160007B8600087B8600087B8600087B8600087B8600087B8600087B8600080000000040
:200180007B860008DFF81CD008F092FE0EF082FC002103480EF04AFD0EF08EFCFEE7000071
:2001A000E00000202841012080F309887047EFF309807047684680F3098804480078C0079B
:2001C00014BF0220032080F31488704794130108DFF818C0EFF305831B0618BF6047EFF3F7
:2001E0001483DB0708BF604700DF704781EF0008DFF818C0EFF305831B0618BF6047EFF370
:200200001483DB0708BF604700DF7047F5F10008EFF30980816911F8021CF1B990E80F10B6
:20022000E047EFF3098C8CE80700144B93E8060091420FD039B12CE9F00FC1F828C00CB4B4
:200240000FF0B0FB0CBC1A60D2F828C0BCE8F00F8CF309886FF0020E704710B5084A126896
:20026000914209D8074C54F8214090E80F10A047EFF3098C8CE80F0010BD00006401002000
:200280006C9300086C9300080FF022FA0C4B93E80600914210D0EFF3098C2CE9F00FC1F866
:2002A00028C00CB40FF07EFB0CBC1A60D2F828C0BCE8F00F8CF309886FF0020E7047000051
:2002C000640100200FF036FCE0E700000EF028FD0FF030FCDAE700001A480068401C19490A
:2002E000086019480068704703F091FA00F034F801F0E4FB01F0AEFC0BF040F902F0F9FAF8
:2003000000F068FC01F058FB00F070F900F010FA00200E4908600E49086011E001F05CFB1B
:2003200001F071FB01F08DFB0A4890F8B800022806D100200BF09AF80020064981F8B80007
:20034000ECE7000000000020080100200400002008000020080B002000B591B00120059056
:20036000069002200B9041050C9119210D91F0210E9102210F910521109105A804F0B0F9EB
:200380000F20009002200190002002904FF4A05003904FF4805004900321684604F09CFB6F
:2003A00011B000BD10B501468D4800688D4A1268904201D1002010BD0020894B1B6803EB2F
:2003C0004303894C04EB830202E0135C0B54401C135C002BF9D10B54814B1B685B1C804C2D
:2003E000236023461B68C82B01DB0023236000BFE1E70FB408B503A800907A49096801EBB7
:200400004101794A02EB8100009A029908F0C4FF0020009073480068401C724908600846D9
:200420000068C82801DB0020086001B05DF814FB30B5002100280BDA2D246A4A126802EB6C
:200440004202694B03EB82050A46491CAC540AE03024644A126802EB4202634B03EB8205C0
:200460000A46491CAC5442F2107290FBF2F23032D4B25C4A126802EB42025B4B03EB82054E
:200480000A46491CAC5442F2107290FBF2F302FB13004FF47A7290FBF2F23032D4B2514A50
:2004A000126802EB4202504B03EB82050A46491CAC544FF47A7290FBF2F302FB1300642297
:2004C00090FBF2F23032D4B2464A126802EB4202454B03EB82050A46491CAC54642290FBBF
:2004E000F2F302FB13000A2290FBF2F23032D4B23C4A126802EB42023B4B03EB82050A4608
:20050000491CAC540A2290FBF2F302FB130000F13002D4B2334A126802EB4202324B03EB8E
:2005200082050A46491CAC540D242E4A126802EB420203EB82050A46491CAC540A24294A60
:20054000126802EB420203EB82050A46491CAC540024244A126802EB420203EB82050A46C4
:20056000491CAC541F4A1268521C1E4B1A601A461268C82A01DB00221A6030BD19490968DE
:2005800001EB4101184A02F821000D21154A126802EB4202144B03EB820251700A21114A60
:2005A000126802EB420203EB8202917000210D4A126802EB420203EB8202D1700949096884
:2005C000491C084A116011460968C82901DB002111607047002003490860014908607047D8
:2005E0000C000020100000209001002089B07349096800917149091D096801916F49083123
:2006000009680291029A009901EB82016C4A1160DDE9011201EB0211009A891A684A516093
:20062000114609684908029A01EB52024AF63E4300991940019BA1EB93011144604A916066
:20064000114649684CF64F0211405D4A52681144019A891A5A4AD16040F60F720199114043
:20066000574AD26801EB8201009A01EB5201544A9268891A524A52681144514A1161002044
:2006800008E04F4951F8201021F0004103AA42F82010401C0528F4DBDDE904121140494AE0
:2006A0001144039A8A1ADDE9063119431144049A01EB0211424A516109B0704730B587B08F
:2006C00004463F48C0683E4909683F4A126811443B4A52693D4B1B681A443B4B1B68D21A33
:2006E0003A4B1B68384D2D682B44CDE90232CDE904103348806834490968084430494968EE
:200700002F4A92681144CDE900102D4800682C49096908442D4909684218294840682B496D
:2007200009680B1A2AA1204608F022FE07B030BD86B0002007E0224951F8201021F00041C3
:200740004DF82010401C0628F5DB049A00991144039A891AC1F30741264A1278264B1B7804
:200760001A44914227D101994908029A01EB4201C1F30721214A12781F4B1B78D21A91420D
:2007800019D11C4909781D4A12781144059A01EB5201029A01EB4201CAB217490978184BDA
:2007A0001B781944134B1B78C91A8A4203D10121144A82F8881006B070470000501A010863
:2007C000F00A0020AB8C2BC30800002004000020253038782530387825303878253038787A
:2007E000253038782530387825303878253038780000000014000020150000201600002046
:2008000017000020080B00202DE9F04104460D4617460026082C30D2DFE804F00410161CD0
:2008200022280A2E96A1284608F0A2FD064624E09AA1284608F09CFD06461EE099A128467E
:2008400008F096FD064618E09BA1284608F090FD064612E09CA1284608F08AFD06460CE0FA
:200860009DA1284608F084FD064606E09FA1284608F07EFD064600E000BF00BF3046BDE83B
:20088000F0812DE9F04F93B080460E4691461D460024287830B1012805D0022808D003282B
:2008A00077D165E076E044F0004013B0BDE8F08FA87820B99249304608F05AFD044650E0E7
:2008C000A878401C00F0FF0A85F802A050460AF007FF0746781C50B930196FA108F048FD6E
:2008E00004440020A87014200AF044FF3DE038460DF0FCF98346AA7830195B4681A108F08B
:2009000037FD0444022F0AD150460AF0CBFE834630195A467FA108F02BFD044421E0022F8A
:200920001FDD14220EA950460AF0BEFEBDF93800282304AA0FA90AF007FE50460AF0D2FE84
:20094000834650460AF0AEFE0390BDF83A0004A9CDE9001030195B4670A1039A08F008FD08
:200960000444A9F16000A042AAD800BF20469CE73046FFF717FD04460A200AF0FBFE24B965
:200980006BA1304608F0F4FC044644F000408CE7FFE700BF00BF67480068401C65490860CF
:2009A000404607F070FF044663A140460AF0AEFE48B10320287061A1304608F0D9FC04468E
:2009C00044F0004071E761A140460AF09FFE38B15FA1304608F0CCFC044644F0804064E784
:2009E00060A140460AF092FE48B1022028705FA1304608F0BDFC044644F0004055E75DA114
:200A000040460AF083FE08B314210EA80AF09AFEA8B9BDF93800282304AA0FA90AF094FD12
:200A200004AA56A1304608F0A3FC0446BDF83A20301956A108F09CFC0444204635E757A119
:200A4000304608F095FC044620462EE756A140460AF05CFE20B956A140460AF057FE30B17B
:200A60005449304608F084FC044620461DE7424651A1304608F07CFC0446204615E700002B
:200A80000D0A456D6265646465642054656C6E6574205365727665720D0A00000D0A436D34
:200AA000643E20000D0A506C65617365206C6F67696E2E2E2E0000000D0A557365726E61BB
:200AC0006D653A20000000000D0A50617373776F72643A20000000000D0A4C6F67696E20F6
:200AE000696E636F72726563740000000D0A4C6F67696E2074696D656F75740D0A000000DF
:200B0000471201080D0A2020252D3664252D313373000000252D356400000000252D366430
:200B2000252D3764252D333073252D3564000000200800001C0000204C4F47000D0A2D2DFE
:200B40002D2D2D2D2D2D2D2D2D2D2D00425945000D0A446973636F6E6E656374696E670D5A
:200B60000A00000054435053544154001B5B324A0000000052494E464F0000000D0A204958
:200B8000502061646472203A202573000D0A2054435020706F72743A202564000D0A2045D6
:200BA00072726F722100000048454C50000000003F000000601101080D0A3D3D3E20556EBB
:200BC0006B6E6F776E20436F6D6D616E643A2025730000000021204A1160117101215171B5
:200BE000D180002182F86C1011675167A2F878106421A2F87A10002182F87C1082F87D1064
:200C0000C2F88010C2F8841082F88810C2F88C1082F89C10C2F890109166012182F89D1014
:200C2000002182F8B810002012E000220A49083141F82020983141F820204FF44812683998
:200C400041F820204FF48032183141F82020401C0628EADB70470000080B00202DE9F041E4
:200C600006460D460024C6B961202855641C62202855641C00202855641CFE4800682851F1
:200C8000241DFC4890F888002855641CFC202855641CCF202855641CA1E0052E13D16120A4
:200CA0002855641C62202855641C05202855641C2819FFF703FD4034FC202855641CCF20E3
:200CC0002855641C8BE0032EE6D161202855641C62202855641C03202855641CE548007901
:200CE0002855641CCC202855641C08202855641CE048006F2851241DCC202855641C0A2085
:200D00002855641CDB48D0F890002851241DCC202855641C0C202855641C002706E0D54865
:200D2000083050F827002851241D7F1C062FF6DBCC202855641C09202855641CCD48D0F8C5
:200D40008C002851241DCC202855641C10202855641CC84890F89C002855641CCC2028559D
:200D6000641C05202855641CC24890F86D002855641CC04890F89E002855641CBD4890F81D
:200D80006C002855641CBB48C08800B22853A41CB848806E80B1CC202855641C19202855F4
:200DA000641C00F06CFE2855641CB248806E28510020B0498866241DCC202855641C0B209F
:200DC0002855641CAB4840792855641CA94890F89D002855641C00202855641C00BF204618
:200DE000BDE8F08178B504460D46002200BFA1480068009000232EE0E15C082A27D2DFE8F1
:200E000002F004090E1718191A22612901D0022078BD1DE0622901D00220F9E718E0022911
:200E200005D0052901D10420F2E70220F0E70FE000BF00BF00BFD01E1DF80000884201D01D
:200E40000220E5E704E08B4801710120E0E700BF00BF521C5B1CAB42CED30020D8E702467B
:200E6000002A02DA5242012005E01AB9824B53F8210000E00020804B43F82100C0077D4B10
:200E8000D3F898305A4310437047F0B5054639E07A492868884200D139E079480068401C83
:200EA00077490860002420E0B5F90060AD1C21463046FFF7D4FF074672480078844201DB48
:200EC000002700267048006800EB40006F4901EB001040F824706C48006800EB400001EBC7
:200EE0000010183040F82460641C062CDCDB00206749087064480088401CC0F30900624936
:200F0000086000BF5B4890F888000028C0D100BFF0BD70B5044606E1641C2678641C0E2EA2
:200F200077D007DC082E75D2DFE806F017212931373D5786162E6ED008DC0F2E6CD0132E4A
:200F400059D0142E6AD0152E64D1B4E0172E71D0182E70D0CF2EF7D1E0E020884549A1F880
:200F60007A00A41C2088A1F87800A41CD9E02078404981F87C00641C01F0A4F8D1E0207899
:200F80003C4981F87D00641C01F09CF8C9E039492068C1F88000241DC3E036492068C1F841
:200FA0008400241DBDE02078324981F86D00641C207881F89E00641C084690F89E0010B9EA
:200FC000207881F86C00641C2A4890F89E0010B920882849C880A41CA3E0002506E0254897
:200FE0003830216840F82510241D6D1C062DF6DB00F003F995E0002506E01E48203021681A
:2010000040F82510241D6D1C062DF6DB00F0F5F887E01DE083E059E048E0FFE7002506E09F
:201020001448A030216840F82510241D6D1C062DF6DB76E04FE053E0002506E00D48503028
:20104000216840F82510241D6D1C062DF6DB68E00020084981F89D002088A1F894000846DA
:20106000B0F89400B0F5487F03D14FF4C860A1F894000FE0080B0020C40B0020EEDDAABB1B
:2010800020000020180000204C000020300D0020520000203348B0F894006FF00041B1FB9A
:2010A000F0F03049C1F89800A41C3AE02D4920684867241D35E020782B490978884203DA75
:2010C0006178207800F0CEF8A41C2AE0207800F01CF9641C25E0207822494871641C20E0C1
:2010E0002248008822490988401AC0F30900032806DB1F480088401CC0F309001B4908600D
:2011000018484079042803D016484079082801D100F0D9F820201349487102E070BD00BFBA
:2011200000BF00BF00BF2078CC283FF4F5AE00BFF4E770B50446002525781DB9601CFFF7FD
:20114000E8FE0DE007484079012803D005484079022805D1022003494871601CFFF795FE86
:20116000002070BD080B0020180000204C00002048000020002008E0012100EB8002FE4B03
:2011800003EBC20282F82410401C0628F4DBFA49FA4A116070470146F9484079012803D0AA
:2011A000F7484079884203D1F54A5171002070470120FCE7002114E001EB8100EF4A126888
:2011C00002EBC00090F82400012801D000207047002001EB8102E94B1B6803EBC20210617C
:2011E000491C0629E8DBE7480068E74A1268904201D10120EBE70020E9E7E14840790428C1
:201200002FD100202AE000EB8001DC4A126802EBC10191F8241001BB00EB8001D74A126869
:2012200002EBC101C96800290CDAD549383151F82010494200EB8002D04B1B6803EBC20277
:20124000D1600AE0CE49383151F8201000EB8002CA4B1B6803EBC202D160401C0628D2DB5B
:2012600000BF704710B503460C460420FFF793FF00B110BDC5480078834200DBF9E72CB18C
:20128000BF48383050F82300404203E0BC48383050F8230003EB8301B84A126802EBC1019B
:2012A000C860002003EB8301B44A126802EBC101886003EB8301B14A126802EBC10181F856
:2012C000240000BFD5E7002018E0002100EB8002AA4B1B6803EBC202516000EB8002A74B8F
:2012E0001B6803EBC202D160012100EB8002A34B1B6803EBC20282F82410401C0628E4DBDF
:20130000A0490968A04A1160704710B5002200EB8003994C04EBC303DA6000210DE0814267
:2013200000D109E000EB8002934B03EBC20292F8242002B103E000BF491C0629EFDB00BFB6
:2013400010BD10B503460C460820FFF724FF00B110BD03EB83008949096801EBC00090F8B9
:201360002400002850D0002003EB8301834A126802EBC10181F8240003EB83007F49096832
:2013800001EBC0004461002C04DD7D48203050F8230004E07A48203050F82300404203EB9E
:2013A0008301764A126802EBC101C86003EB83007249096801EBC000C068001203EB8301A3
:2013C0006E4A126802EBC101C860002003EB83016A4A126802EBC101886103EB8301674A89
:2013E000126802EBC101086203EB8301634A126802EBC101C861002103EB83005F4A126834
:2014000002EBC000416031E003EB83005B49096801EBC0004069011903EB8300574A1268EC
:2014200002EBC000416103EB83005449096801EBC000406900280CDD5148203050F8230024
:20144000011203EB83004D4A126802EBC000C1600CE04B48203050F823004042001203EB6D
:201460008301464A126802EBC101C86000BF6FE710B5474800684749096888421CD04048F7
:2014800090F86D00A0B1424A1268424B1B68D21A3B4BDB885A433A4B93F86C40A03353F8A4
:2014A000243002FB03F1364A92F86C00FFF749FF374800683749086010BD70B501203649D2
:2014C000087000248FE02E48407908282ED104EB84002A49096801EBC000006904EB8401C3
:2014E000264A126802EBC1014968084404EB8401224A126802EBC101086104EB84001F4909
:20150000096801EBC0000069051204EB84001B49096801EBC0000069A0EB052004EB8401AD
:20152000164A126802EBC101086144E014484079042840D104EB84001049096801EBC0005A
:20154000006904EB84010D4A126802EBC1014968084404EB8401094A126802EBC1010861D8
:2015600004EB84000549096801EBC0000069051404EB8400014911E0DC0B00202400002012
:20158000080B00204C00002048000020180000202C0000203000002052000020096801EBA1
:2015A000C0000069A0EB054004EB8401F74A126802EBC101086121462846FFF750FCF44997
:2015C000096801EB4101F34A02EB011141F82400EF48006800EB4000114601EB001018306E
:2015E00040F82450641C062CFFF66DAFE8480088401CC0F30900E649086070BD2DE9F041A1
:20160000CEE1E3480088E4490988401AC0F30900032871DA01270025ADE105EB8500DB49AA
:20162000096801EBC00494F8240000B1A2E1002700BF0026D9484079082835D0E168606879
:20164000884218DDE06840B9D448503050F825006168A1EB4000606006E0D048503050F866
:2016600025006168081A6060E1686068884201DAE06860606BE1E06840B9C848503050F877
:201680002500616801EB4000606006E0C348503050F82500616808446060E16860688842E2
:2016A000E8DDE068606052E1216A606988427CDD606800280FDAB948503050F82500616823
:2016C00001EB20206060606800284CDD002020606060A06147E0226A6169881AA1698142B8
:2016E00022DD6268A169891AA161A16829B1A16861600021A16008E046E1A849503151F8D9
:2017000025106268A2EB21216160A449503151F825106268B2EB212F24DAA049503151F8E6
:201720002510091261601DE0A269811A62688A4217DCE36862689A4213D0984A503252F8EA
:201740002520636803EB222262606368A2691A44A261E36862689A4203DD6268A260E26867
:20176000626000BF00BF05EB85008849096801EBC000006A05EB8501844A126802EBC101EF
:201780004968084405EB8501804A126802EBC101086205EB85007D49096801EBC000006AB7
:2017A00005EB8501794A126800E031E002EBC101496988422BDD05EB85007449096801EBC3
:2017C000C000406805EB8501704A126802EBC101096A401A05EB85016C4A126802EBC10126
:2017E0004969084405EB8501684A126802EBC101486005EB85006549096801EBC000406909
:2018000005EB8501614A126802EBC10108629EE0606800280FDD6148503050F8250061685B
:20182000A1EB20206060606800284CDA002020606060A06147E06269216A881AA1698142B9
:2018400021DD6268A1691144A161A16821B1A16861600021A16007E05049503151F8251019
:20186000626802EB212161604C49503151F825106268B2EB212F25DD4849503151F82510D1
:20188000091261601EE0A269811A626852428A4217DCE36862689A4213D0404A503252F881
:2018A00025206368A3EB222262606368A269D21AA261E36862689A4203DA6268A260E268DB
:2018C000626000BF00BF05EB85003049096801EBC000006A05EB85012C4A126802EBC1013E
:2018E0004968084405EB8501284A126802EBC101086205EB85002549096801EBC000006A06
:2019000005EB8501214A126802EBC101496988421DDA05EB85001D49096801EBC0004068AA
:2019200005EB8501194A126802EBC101096A411A05EB8500154A126802EBC00040690844E7
:2019400005EB8501114A126802EBC1014860002E7FF46FAEFFF7B1FD606850B9012084F815
:20196000240000206061E060A0612062E0616060206100BF6D1C062DFFF64FAE1FB10120BF
:201980000649487115E00BE013E00000240000204C000020300D002048000020080B0020C4
:2019A0000A48407904283FF42CAE084840790828F9D000BFBDE8F08100B500200449086082
:2019C00004490860FFF7D6FB00BD0000080B00204C000020480000203049086800F40041A9
:2019E00069B12F49097869B901212D4A11702D49D1F88C10491C2B4AC2F88C1002E000218A
:201A0000274A117070472849086800F04001A1B926490978A1B900F0800129B92449096836
:201A2000491E234A116004E021490968491C204A116001211D4A117002E000211B4A11706F
:201A400070471C49086800F48051A1B91A490978A1B900F4005129B91249896E491E114A62
:201A6000916604E00F49896E491C0E4A91660121114A117002E000210F4A117070470A48A4
:201A8000016801F4804008B90020704701F4004008B90120F9E70220F7E70000100802403F
:201AA00034000020080B002010040240350000202C000020100C02403600002010B5574890
:201AC0005749086004215648C1601D20544948600021534801618160416103F05AFB10B1EE
:201AE00050A0FEF786FC4E4803F0BCFB10B151A0FEF77FFC4FF080404949086040F2CF71B2
:201B00004748C1603B20464948600021444801618160416103F03DFB10B142A0FEF769FCC9
:201B20003F4803F09FFB10B142A0FEF762FC10BD38B5044600BF002000904248006840F006
:201B40000100404908600846006800F00100009000BF00BF00BF002000900846006840F089
:201B6000020008600846006800F00200009000BF00BF002203211D2001F028FF0022032164
:201B80001C2001F023FF1D2001F05EFF1C2001F05BFF38BD10B54FF08040006900F00100D1
:201BA00000B300F0BDFA00F013F9FFF761FCFFF725FD254800682549096800EB4100244917
:201BC0000968084421490860084600682049096800EBC1011C4800684AF23532104008442E
:201BE0001B4908604FF08040006920F001004FF08041086110BD10B508481030006800F0BD
:201C0000010048B105481030006820F0010003491031086000F04AFB10BD00000004004089
:201C2000CC0C0020696E6974206661696C65640D0A0000007374617274206661696C6564A9
:201C40000D0A00004038024000000020040000200800002000B587B000BF00200190FE48A5
:201C6000006840F00100FC4908600846006800F00100019000BF00BF00BF002001900846AA
:201C8000006840F0020008600846006800F00200019000BF00BF00BF002001900846006865
:201CA00040F0040008600846006800F00400019000BF00BF00BF002001900846006840F079
:201CC000080008600846006800F00800019000BF00BF00BF002001900846006840F0100071
:201CE00008600846006800F01000019000BF00BF4FF6FF70029001200390022005900120E5
:201D0000049002A9D54802F0D9FA012002900390022005900120049002A9D14802F0CEFA72
:201D200046F20C00029001200390022005900120049002A9CB4802F0C1FA4FF440700290BD
:201D400001200390022005900120049002A9C64802F0B4FA4FF4184002900020039002A97F
:201D6000BF4802F0ABFA49F6C07002900020039002A9BC4802F0A2FA4FF69F7002900020CE
:201D8000039002A9B94802F099FA402002900020039002A9B44802F091FA80200290002064
:201DA000039002A9B04802F089FA382002900020039002A9AC4802F081FA4FF6FF70029089
:201DC0000020039002A9A94802F078FA07B000BD0020A7490867A2480069A6490860A148CA
:201DE000103000688860A14810300068C8600846008800F40060098801F4805108439D49E8
:201E0000097A01F0400140EA41009A49097A01F0800140EA41009749098901F4807140EADD
:201E200041009449098901F4007140EA410091490989C1F3003108438E49898901F48071B6
:201E400040EAD1108B49898901F4007140EAD1108849898901F4806140EAD110854989897C
:201E600001F4006140EAD1108249898901F4804140EA51207F49898901F4004140EA512028
:201E80007B490867084690F89E0000285CD07948007B00F0800018B9002081F86C0035E0B0
:201EA0007448007B00F0100020B90120704981F86C002BE06F48007B00F0080020B9022023
:201EC0006B4981F86C0021E06A48007B00F0040020B90320664981F86C0017E06548007B98
:201EE00000F0020020B90420614981F86C000DE06048007B00F0010020B905205C4981F847
:201F00006C0003E006205A4981F86C005948008900F4006018B901205549C88014E05548DD
:201F2000008900F4806018B90A205149C8800BE05048008800F4004018B964204C49C880F6
:201F400002E001204A49C8804948006F4849D1F8801008404649D1F88410884203D00120C7
:201F60004549087002E00020434908704148008900F40040414908600846006860B14048CE
:201F8000006848B93A48D0F88C00401C3849C1F88C0001203A490860384800683849086003
:201FA0003448006920F00F0032490861304890F87400C0F340102E4991F8741001F040010C
:201FC00040EA51102A4991F8741001F0800140EA51102749B1F8741001F4807140EA5110EB
:201FE000244909690843234908610846406820F4407048601E4890F8740000F008004001E5
:020000040800F2
:202000001B4991F8741001F0100140EA4110194949680843174948600846806846F20C01F1
:20202000884314498860124890F8740000F004000F4991F8741001F0020140EA81000C49ED
:20204000B1F8741001F4007140EA01100849B1F8741001F4806115E030380240001002406D
:20206000000002400008024000040240000C0240080B0020080D0020440000203C00002018
:202080003800002040EA01100B49896808430A49886008460089C1430748806861F31F401D
:2020A0000649086004488088C1430348406861F31F40034908607047080D00201808024069
:2020C000180402400021FE4A1160002010E0FD4991F87C1001228240114041B1FA490A5C8C
:2020E00001219140F64A12681143F54A1160401C0628ECDB002010E0F24991F87D2001214B
:2021000081400A4042B1F1490A5C01219140EC4A12681143EA4A1160401C0628ECDB70477D
:2021200000B587B0EA48007800287CD0E948007890B1E9480068E94908600120E14981F8B4
:202140009C000846407900F0210048B9FFF7BBF80120DC49487103E00020DA4981F89C00E7
:20216000DE480068DC490968884208D1D5484079022802D10120D349487107B000BD00213A
:20218000D74A116000202BE0D349096801EB4101D44A02EB011151F82010C90F01AA42F874
:2021A0002010CD49096801EB4101CE4A02EB0111183151F82020C349083151F820100A4445
:2021C000C049083141F8202001A951F82010BE4A125C9140C24A12681143C14A1160401C28
:2021E0000628D1DBBC49096801EB4101BD4A02EB0111096821F00041BB4A1160B6490968B2
:2022000001EB4101B74A02EB0111496821F00041B64A1160B049096801EB4101B14A02EB9C
:202220000111896800E03FE021F00041B04A1160A949096801EB4101AA4A02EB0111C9682A
:2022400021F00041AB4A1160A349096801EB4101A44A02EB0111096921F00041A64A116029
:202260009D49096801EB41019E4A02EB0111496921F00041A14A116097490988491CC1F308
:202280000901954A11609E49097831B98D49D1F89010491C8B4AC2F8901000218C4A117047
:2022A0000121984A117000BF00BF66E7844A11680020844AB2F87A20934B1B889A4203DA1B
:2022C0000022914B1A8004E08F4A1288521C8E4B1A807C4AB2F87820052A03DA01228B4B21
:2022E0009A611BE0774AB2F87830B2F87A20521F934204DB4FF48032844B9A610EE0714A04
:20230000B2F87820804B1B889A4204DB4FF480327E4B9A6102E001227C4B9A61694AB2F875
:2023200094207B4B1B889A424BDA664AB2F89420521C774B1B889A4213D1754A1288521C17
:20234000734B1A804FF08042724B1A60724B1A60724B1A60724B1A60724B1A60724B1A60DA
:20236000A6E0684A1278002AFAD00022654B1A705B4A12686D4B1A601A46126812B1584ABB
:2023800012681A60584A1268694B1A60574A1268684B1A60564A1268674B1A60554A126858
:2023A000664B1A60544A1268654B1A60534A1268644B1A600122464B1A700022544B1A80D7
:2023C00076E0534A1288521C514B1A80514A1268574B1B681A444F4B1A601A46126802F054
:2023E000004232B140F400401A46126822F000421A60494A12684F4B1B681A44464B1A6009
:202400001A46126802F0004232B140F400501A46126822F000421A60404A1268464B1B6887
:202420001A443E4B1A601A46126802F0004232B140F400601A46126822F000421A60384A8C
:2024400012683E4B1B681A44354B1A601A46126802F0004232B140F400701A46126822F01D
:2024600000421A602F4A1268354B1B681A442D4B1A601A46126802F0004232B140F08000B9
:202480001A46126822F000421A60274A12682D4B1B681A44244B1A601A46126802F0004259
:2024A00032B140F020001A46126822F000421A601E4A1268104320EA010221EA000343E0CE
:2024C00040000020080B00206B130108651301085000002044000020480000204C000020B9
:2024E00054000020300D0020580000205C0000206000002064000020680000206C000020FF
:20250000520000205100002070000020000002407200002090000020940000209800002058
:202520009C000020A0000020A400002074000020780000207C00002080000020840000204F
:20254000880000208C00002042EA0300044A12691043C343024663F31F42024B9A617047D8
:20256000080D002000100240FF21EB48C1710020E94908804FF45E704880704730B50546B5
:202580000C4664B91078E44908715178E248417191788171FFF7E8FF0120E049086030BD82
:2025A0002DE9F04707468C46900802F0030163463C46804603E053F8209044F82090B0F1C5
:2025C0000009A0F10100F6D104EB880403EB880325461E4603E016F8019005F80190B1F124
:2025E0000009A1F10101F6D1BDE8F0872DE9F05F82460E4693461F46DDF82890062E52D2B7
:20260000DFE806F003040F1017184CE00520C34908600320C2490860C248006809F0CEF81C
:2026200041E000BF0120BD4908600320BC49086039E038E04FF000083C463D4600BF20E05F
:20264000B9492068884219D1241D08F10308B748006818B92846FEF76CFD0AE0621BB4498F
:20266000B24B1B68C8182946FFF79AFFB048FEF760FD0020AD490860254600E0641C08F170
:202680000108A9F103004045DAD8A5420AD0601BC01CA649086008460268D21C2946A448ED
:2026A000FFF77EFF00BF00BF0020BDE8F09F2DE9F04781460D4616461F4639463046FEF7C3
:2026C00091FB8046B8F1010F13D10020994908804FF4EC604880002405E0281D015D9548A1
:2026E000001D0155641C042CF7DB03208B4908600FE0B8F1040F0CD1002405E0281D015D52
:202700008548001D0155641C042CF7DB05208A4908600020BDE8F0877CB5064687480068A7
:20272000642805DC85480068401C8449086002E000208249086079480068002856D18048F1
:202740000068642803DB00207D49086005E07C480068401C7A4908607CBD7A480068401C02
:202760007849086008460068122803D10220764981F8B80073480068142836DD6A46002117
:2027800072A008F0D4FE04236A460121080208F0A1FE6A46002171A008F0C9FE04236A464B
:2027A0000221C80108F096FE6A4600216FA008F0BEFE04236A460321980108F08BFE6A4648
:2027C00000216EA008F0B3FE04236A461946980108F080FE504A121D00215CA008F0A7FE59
:2027E000FFF7C2FE01204D49086080E04B48006801281BD1AFF2491008F0EEFF49490860BB
:2028000008460068002805DB40F27A314548006808F0EEFF02204149086000204849086016
:202820004549086064203E49086060E03B48006802281FD142480068642803DB00204049E5
:20284000086005E03E480068401C3D49086083E7802008F0BFFF0546374908782946FEF784
:20286000FDF9044623462A462B492E48006808F0CDFF3CE029480068032812D1AFF29320D2
:2028800008F022FF3F49086000222A493D48006808F0F6FE042021490860032026490860D1
:2028A00025E01E480068042821D01C48006805281DD123480068042803DB00202049086073
:2028C00005E01F480068401C1D49086044E7802008F0E6FE0546184908782946FEF7BEF92C
:2028E0000446224629462748006808F0FDFE00BF32E738B500200949086022490860094929
:2029000008606A46012120480CF0BAF904460A2120460CF0CFF938BD30CD0020B0000020E5
:20292000B8000020A8000020EEDDAABBC000002058CD002044CD0020B4000020C4000020B9
:20294000C8000020CC000020080B00203139322E3136382E33312E31303000003235352EEC
:202960003235352E3235352E300000003139322E3136382E33312E3235340000382E382E03
:20298000382E3800AC0000207413010800BFFEE7012806D0022805D0032804D0042804D19B
:2029A00002E003E002E001E000E000BF00BF00BFFEE7000008B58D480068009008BD0246F6
:2029C00002B111B96FF0040070478948807A00F0010038B98648026041600020844B18815A
:2029E000012098720020EFE7002081490860486008818872704738B5044624B1012C5FD01A
:202A0000022C5CD117E07A48807A00F0010010B94FF0FF3038BD7648807A20F00200744904
:202A200088724FF400600881084602890021436801209847EEE76E48807A00F0010010B98C
:202A40004FF0FF30E6E76A48807A00F0020008B10020DFE766486A46022103680120984712
:202A6000BDF80000B0F5005F02D06FF00300D1E75F486A460321036801209847BDF8000016
:202A80004FF6F071084045F69041884202D06FF00300BFE700205649088108460289002156
:202AA00043680120984710B14FF0FF30B2E75048807A40F002004E4988720020AAE700BFDE
:202AC0006FF00300A6E770B505464948807A00F0020010B94FF0FF3070BD15B1012D04D1ED
:202AE00001E0012404E0212402E06FF00300F3E700BF3F4822461721436801209847EBE726
:202B000070B505463A48807A00F0020010B94FF0FF3070BD3648008900F4006405F003001C
:202B200010B1012804D100E005E044F4005402E06FF00300EDE700BF05F0040010B10428C8
:202B400004D100E005E044F4807402E06FF00300DFE700BF05F0080008B144F4805405F02F
:202B6000100008B144F4804405F0200008B144F480641F4804810289002143680120984763
:202B8000C7E738B5002000901948807A00F0020028B117486A460121036808469847BDF846
:202BA0000000C0F38004204638BD1CB5002000900F48807A00F0020028B10D486A461021B0
:202BC000036801209847BDF80000012121EA5001019861F301000190BDF800008108019801
:202BE00061F38200019001981CBD0000D41301082CE1002008B5F74988420FD100BF002158
:202C00000091F549096841F00101F34A11601146096801F00101009100BF97E0EF4988420F
:202C20000FD100BF00210091EB49096841F00201E94A11601146096801F00201009100BFBA
:202C400084E0E74988420FD100BF00210091E249096841F00401E04A11601146096801F09F
:202C60000401009100BF71E0DE4988420FD100BF00210091D849096841F00801D64A11600F
:202C80001146096801F00801009100BF5EE0D64988420FD100BF00210091CF49096841F0F0
:202CA0001001CD4A11601146096801F01001009100BF4BE0CD4988420FD100BF0021009105
:202CC000C549096841F02001C34A11601146096801F02001009100BF38E0C54988420FD1AB
:202CE00000BF00210091BC49096841F04001BA4A11601146096801F04001009100BF25E0B7
:202D0000BC4988420FD100BF00210091B249096841F08001B04A11601146096801F08001D0
:202D2000009100BF12E0B44988420FD100BF00210091A949096841F48071A74A11601146F7
:202D4000096801F48071009100BF00BF08BD002020E04FF00042A94B03EB40131A604FF4B5
:202D60008C42A64B03EB40135A6000EB4002A44B03EB4222A14B03EB40139A60411C04297A
:202D800000D100219D4A02EB41129C4B03EB4013DA60401C0428DCD3984A9A4BDA6000225E
:202DA000994B9A717047002019E0984A984B03EB40131A6000EB4002964B03EB4222944B95
:202DC00003EB40139A60411C022900D10021904A02EB41128E4B03EB4013DA60401C02284A
:202DE000E3D38B4A874B1A610022874B5A71704791FAA1F35840082208E000F000431BB1BD
:202E00004000854B584000E04000521E002AF4D170472DE9F04104460D464FF0FF362F4607
:202E200006E014F8011B3046FFF7E2FF06467F1E002FF6D1F043BDE8F08108B5774800682B
:202E4000009008BD76480068704730B585B0054661481430006840F480405F49143108603D
:202E60007048006840F400006E4908600220019000200290032003900B2004906A4C09E066
:202E80002068FFF7B7FEA08800906946206801F015FA0834644848308442F1D15A48002165
:202EA0000160416081600560012057490871002005B030BD10B55C4C04E0A188206801F0DB
:202EC000EBFA0834584848308442F6D14E48007920F001004C490871002010BDF8B5064618
:202EE00026B1012E6AD0022E73D16AE000BF002000903948006840F00070374908600846A6
:202F0000006800F00070009000BF00BF00BF002000900846006840F0806008600846006888
:202F200000F08060009000BF00BF00BF002000900846006840F0006008600846006800F0F0
:202F40000060009000BF00BF23482038006840F0007021492039086000BF00BF00BF00BF11
:202F60001D482038006820F000701B49203908603D2000F01F02012191402C4A430942F82A
:202F8000231000BF00201F49C861294908601248006820F00070104908600846006820F0EB
:202FA000806008600846006820F0006008601648007920F0020014490871E4E06FF0030056
:202FC000F8BD1148007900F0010098BB4FF0FF30F6E7D5E0000002403038024000040240F4
:202FE00000080240000C0240001002400014024000180240001C02400020024044E1002032
:2030000004E200200090024038E1002000001030C4E1002004FA0020B71DC1044014010886
:203020004414010804380140F813010880E100E000870240FFE7FE48007900F0020000B14C
:20304000A1E000BF00200090FA48006840F00070F84908600846006800F00070009000BF28
:2030600000BF00BF002000900846006840F0806008600846006800F08060009000BF00BF60
:2030800000BF002000900846006840F0006008600846006800F00060009000BF00BFE648D1
:2030A000006840F00100E449086000BFE248006800F001000028F9D1DF48006840F080006F
:2030C000DD49086001F004FF0446DC498C4201D3042511E0DA48844201D300250CE0D94855
:2030E000844201D30C2507E0D748844201D3082502E04FF0FF3063E7D44805614FF4204079
:20310000D249086020204860802088610020086448648864C864086548658865C865FFF741
:2031200016FEFFF740FE4FF0FF30C3494861C848C8614FF40310C7490860C748C349C1F849
:203140000C013D2000F01F0201219140C34A430942F8231000BF00BF00F01F0201219140B9
:203160004209920002F1E022C2F8001100BF0020AF4988600846007940F00200087102E09F
:203180006FF003001CE700BF002019E7014611B96FF004007047A648007900F0020010B99E
:2031A0004FF0FF30F6E7A948026C100A48710A71A648426C100EC870100C8870100A48703F
:2031C0000A700020E6E7014611B96FF0040070479748007900F0020010B94FF0FF30F6E7FF
:2031E00008794A7940EA0220984A1064C87800068A7840EA02404A7840EA02200A78104352
:20320000924A50640020E2E770B504460D461CB915B16FF0040070BD8548007900F0020010
:2032200010B94FF0FF30F6E78848406840F2044188438649486000208860C86035B988643F
:20324000C864086548658865C865E4E72079617940EA012040F000407C498864E078000606
:20326000A17840EA0140617840EA0120217808437649C8646D1E2DB900200865486588653F
:20328000C865C8E7A41D2079617940EA012040F000406E490865E0780006A17840EA01405D
:2032A000617840EA012021780843684948656D1E1DB900208865C865ADE7A41D2079617945
:2032C00040EA012040F0004060498865E0780006A17840EA0140617840EA012021780843B3
:2032E0005A49C8656D1E0DB9002094E7A41D1AE006212046FFF78DFD860E06F0200048B1A7
:203300005248806806F01F020121914008434F49886006E04D48C0680121B14008434B49C1
:20332000C860A41D6D1E002DE2D14848406840F2044108434549486000206CE7F0B50346A8
:2033400015463B48826803B111B96FF00400F0BD3748007900F0020010B94FF0FF30F6E719
:20336000BAB9334840793E4E06EB4010006800F0004010B16FF00100E9E72D484079384E9C
:2033800006EB401082682A48407906EB401041600CE027484079324E06EB4010406808442C
:2033A000234E76792E4F07EB4616706006E018681060586850600832083308390729F6D818
:2033C00004E018881080921C9B1C891E0129F8D819B113F8010B02F8010B05F0010018B12D
:2033E000134882600020B2E7114840791C4E06EB4010006820F440040D48C07908B144F4DB
:20340000400424F0844405F0020008B144F0804444F00040064E7679114F07EB46163060EF
:2034200003484079401C024E70713046407919E038E10020303802400090024000E1F50543
:2034400000879303C00E160240787D010080024041000100108102406000020080E200E0B8
:20346000C4E10020022801D1002070710020D94EB0600220D84E70610020706000BF66E71E
:2034800070B50246D3488079D44D05EB401083680C461AB911B16FF0040070BDCD4800795A
:2034A00000F0020010B94FF0FF30F6E706E018681060586850600832083308390729F6D80C
:2034C00004E018881080921C9B1C891E0129F8D809B1187810704FF00040BE4DAD79BF4E4B
:2034E00006EB45152860BB488079401CB94DA87128468079042801D10020A871B64840693D
:2035000000F0800020B18020B34D68610020A8602046C2E7AF488079B04A02EB401001683A
:20352000AC48007900F0020008B90020704701F0004008B10020F9E701F4004028B901F49F
:20354000007010B101F4807010B94FF0FF30EDE7C1F30D40001FE9E701464FF0FF307047EE
:2035600001464FF0FF30704702464FF0FF30704770B505469748007900F0020010B94FF0B0
:20358000FF3070BD072D7DD2DFE805F08D045A6C808D8A009248006820F4B84201F003005E
:2035A00010B1012806D102E042F4006205E042F4804202E06FF00300E3E700BF01F0040031
:2035C00020B1042803D142F4006203E002E04FF0FF30D6E700BF01F0100008B142F4805211
:2035E0007D48806920F0087301F0200018B142F4806243F0007301F0400028B143F40013A6
:203600000120744EF07102E00020724EF0717248836173480260406820F0310401F080002A
:2036200008B944F0200401F4807008B144F0100401F4007008B144F001046948446035E0CA
:203640006748006820F008026348806920F4005319B142F0080243F40053614802605E48FD
:20366000836123E05E48006820F004025A48806920F0020319B142F0040243F002035848C5
:20368000026000E00FE0544883610FE001F0020028B15148806940F480104F4EB06105E0E5
:2036A0004F48C16102E06FF003006AE700BF002067E72DE9F04105460E4617464548007946
:2036C00000F0020018B94FF0FF30BDE8F0814448006900F01C0848F0010040EAC52040EA28
:2036E00086103F490861FCF7F7FD044600BF3C48006900F0010000B904E0FCF7EDFD001BE0
:203700000228F4D300BF3648006900F0010020B93348406938800020D7E76FF00200D4E772
:203720002DE9F04105460E4617462A48007900F0020018B94FF0FF30BDE8F08128484761FC
:20374000006900F01C0848F0030040EAC52040EA861023490861FCF7BFFD044600BF2048ED
:20376000006900F0010000B904E0FCF7B5FD001B0228F4D300BF1A48006900F0010008B965
:203780000020D9E76FF00200D6E770B5002412484569144828401049486105F0010008B165
:2037A00044F0020405F0400008B144F001040C48866B06F0080018B10948C06A44F00404E5
:2037C00034B10448006818B1024801682046884770BD000038E100200090024044E1002022
:2037E0000080024041000100704770B5044601F06FFB4FF47A71B0FBF1F5284600F05CF9D2
:2038000000222146501E00F0E1F8002070BD10B55748006840F4007055490860084600686F
:2038200040F4806008600846006840F480700860032000F0B9F80F20FFF7D7FFFFF7D4FF42
:20384000002010BD704710B54FF0FF304949086000200860401E091D086000200860401E3D
:2038600044491039086000200860401E091D086000200860401E091D086000200860FFF7A4
:20388000E1FF002010BD3C480068401C3A490860704739480068704731B50024FCF71CFDBB
:2038A000044600BFFCF718FD001B00998842F9D338BD4FF0E020006920F002004FF0E021BE
:2038C000086170474FF0E020006940F002004FF0E021086170472948704729480068000C81
:2038E000704727480068C0F30B0070472448406840F001002249486070472148406820F095
:2039000001001F49486070471D48406840F002001B49486070471A48406820F00200184960
:20392000486070471648406840F004001449486070471348406820F0040011494860704762
:20394000012090FAA0F1B1FA81F10E4A02EB8101C1F8000470470020012191FAA1F1B1FAC9
:2039600081F1084A02EB8101C1F8000470470000003C024020380240F00000200001010175
:20398000002004E00000274210B5002807DA0A07140EBF4A00F00F031B1FD45403E00A0758
:2039A000130EBC4A135410BD00BF00F00702B84B0C3B19684FF6FF031940B74B0B4343EA0C
:2039C0000221B34B0C3B196000BF70472DE9F05F80460D461646002700F054F90746394686
:2039E0002A46334601F00700C0F1070ABAF1040F02D94FF0040A01E0C0F1070AD14600F193
:203A0000040ABAF1070F02D24FF0000A01E0A0F1030AD4464FF0010A0AFA09FAAAF1010A2A
:203A20000AEA020A0AFA0CFA4FF0010B0BFA0CFBABF1010B0BEA030B4AEA0B04214640464A
:203A4000FFF7A2FFBDE8F09F00BF00F01F02012191404209920002F1E022C2F8001100BF7C
:203A6000704700BF00F01F02012191408B4A430942F8231000BF704700BF00BF00BF00BFCC
:203A800000BFBFF34F8F00BF00BF00BF80480C38006800F4E06080490843001D7C490C39B7
:203AA000086000BF00BF00BFBFF34F8F00BF00BF00BF00BF00BFFDE770B504462546681ED2
:203AC000B0F1807F01D301200FE0681E4FF0E02148610F214FF0FF30FFF756FF00204FF0AB
:203AE000E021886107200861002070BD4178684A803211600178F9B1121D41681160017B89
:203B00000907C27A41EA0261827A41EAC241427B41EA8241827B41EA4241C27B41EA0241A0
:203B2000427A41EA0221027A41EA420102781143574A8832116005E00021554A843211602B
:203B4000121D1160704710B500F09CF810BD2DE9F04304462046002808DA4D4F00F00F0C4E
:203B6000ACF1040C17F80C703F0902E0494F3F5C3F093D460E4606F00700C0F10708B8F12B
:203B8000040F02D94FF0040801E0C0F10708C44600F10408B8F1070F02D24FF0000801E089
:203BA000A0F10308474625FA07F84FF0010909FA0CF9A9F1010908EA0908C2F800804FF04D
:203BC000010808FA07F8A8F1010808EA0508C3F8008000BFBDE8F08300BF00F01F02012136
:203BE00091402E4A8032430942F8231000BF704710B501460846294A8032430952F8232043
:203C000000F01F040123A3401A400AB1012200E00022104610BD00BF00F01F02012191406A
:203C20001F4A430942F8231000BF704710B5014608461B4A8032430952F8232000F01F048F
:203C40000123A3401A400AB1012200E00022104610BD042808D14FF0E021096941F0040113
:203C60004FF0E022116107E04FF0E021096921F004014FF0E02211617047704710B5FFF706
:203C8000FCFF10BD02480C380068C0F30220704718ED00E000E400E00000FA0580E100E0F1
:203CA00080E200E00146087810381823B0FBF3F2F648805C4865032A05D908686FF309003B
:203CC000001D086503E008686FF309000865086D704770B5044600250CB9012070BD606A92
:203CE00000B100BF022084F8350020680568E8480540D4E901010843E168084321690843A4
:203D000061690843A1690843E1690843216A08430543606A042803D1D4E90B010843054360
:203D2000206805602068456925F00705606A0543606A042801D1A06A05432068456120467F
:203D4000FFF7B0FF0020E064012084F835000020C4E770B504460CB9012070BD94F835007A
:203D6000022801D10120F8E72068006820F00100216808600020216808602168486021688A
:203D800088602168C860216808612120216848612046FFF787FF054694F854103F208840E1
:203DA000A8600020E06484F8350000BF84F8340000BF00BFD1E730B50468246824F48024A8
:203DC00005682C60046863608468402C04D10468A2600468E16003E00468A1600468E26075
:203DE00030BD2DE9F04104460D4616461F4600BF94F83400012802D10220BDE8F08101205D
:203E000084F8340000BF022084F835002068006820F00100216808603B46324629462046A0
:203E2000FFF7C9FF2068006840F00100216808600020E2E72DE9F04104460D4616461F4624
:203E400000BF94F83400012802D10220BDE8F081012084F8340000BF022084F835002068C4
:203E6000006820F00100216808603B46324629462046FFF7A0FF2068006840F01E002168AE
:203E800008602068406940F08000216848612068006840F00100216808600020D6E770B593
:203EA000044600252068006820F0010021680860FCF712FA054612E0FCF70EFA401BB0F56A
:203EC0007A7F0CD9E06C40F02000E06400BF002084F8340000BF032084F8350070BD20684D
:203EE000006800F001000028E6D100BF84F8340000BF012084F835000020EFE72DE9F84F37
:203F000004460F46164600200090256D2FB994F85410202000FA01F804E094F85410102055
:203F200000FA01F8FCF7D8F9009064E0286814F8542F0821914000EA010928682278554921
:203F4000914000EA010A286814F854295149C91C914000EA010BB9F1000F05D1BAF1000FF3
:203F600002D1BBF1000F2FD0B9F1000F08D0E06C40F00100E06494F8541008208840A8607A
:203F8000BAF1000F08D0E06C40F00200E06494F8541040488840A860BBF1000F09D0E06CA5
:203FA00040F00400E06494F854103A48C01C8840A860042084F8350000BF002084F8340007
:203FC00000BF0120BDE8F88F701CA0B12EB1FCF783F90099401AB0420DD9E06C40F0200043
:203FE000E064032084F8350000BF002084F8340000BF0320E6E7286800EA0800002895D05C
:020000040800F2
:204000001FBB94F8541030208840A8602068006800F4802088B12068006800F4002018B924
:20402000112084F835000BE02068006800F4002030B1212084F8350002E0112084F8350018
:2040400000BF002084F834001EE094F8541010208840A8602068006800F4802088B120689E
:20406000006800F4002018B9312084F835000BE02068006800F4002030B1412084F835000F
:2040800002E0312084F8350000209BE78C1401083F8010F00100800070B50446256D286820
:2040A00094F8542008219140084000B32068006800F00400D8B12068006820F00400216811
:2040C000086094F8541008208840A860E06C40F00100E064042084F8350000BF002084F89F
:2040E000340000BFA06C10B12046A16C8847286894F8542070499140084000B32068406978
:2041000000F08000D8B12068406920F080002168486194F8541068488840A860E06C40F0C7
:204120000200E064042084F8350000BF002084F8340000BFA06C10B12046A16C8847286877
:2041400094F854205C49C91C9140084008B32068006800F00200E0B12068006820F002008C
:204160002168086094F854105348C01C8840A860E06C40F00400E064042084F8350000BFBF
:20418000002084F8340000BFA06C10B12046A16C8847286894F85420102191400840C0B334
:2041A0002068006800F0080098B32068006800F48020B0B194F8541010208840A86020686F
:2041C000006800F4002018B9312084F835001BE02068006800F40020B0B1412084F835001E
:2041E00012E02068006800F4807028B92068006820F008002168086094F854101020884037
:20420000A860312084F83500206C10B12046216C8847286894F8542020219140084018B3D0
:204220002068006800F01000F0B12068006800F48020D0B194F8541020208840A860206860
:20424000006800F4002028B9606C68B12046616C884729E02068006800F4002020B1E06BF1
:2042600010B12046E16B88471EE02068006800F4807028B92068006820F010002168086048
:2042800094F8541020208840A860E06CE064112084F8350000BF002084F8340000BFE06B13
:2042A00010B12046E16B884770BD014691F8350070470146C86C704701008000F8B502462B
:2042C0000B460025002400200021E1E0012606FA01F51E6806EA0504AC4273D15E68022E7E
:2042E00002D05E68122E13D1CF0802F1200656F827004E07F70E0F26BE40B0434F07FF0EBA
:204300001E69BE403043CF0802F1200646F8270010684F000326BE40B0431E7906F00306D9
:204320004F00BE40304310605E68012E08D05E68022E05D05E68112E02D05E68122E13D1F4
:2043400090684F000326BE40B0434F00DE68BE4030439060506801268E40B0431E79C6F316
:2043600000168E4030435060D0684F000326BE40B0434F009E68BE403043D0605E6806F0E3
:204380008056B6F1805FA8D100BF00260096B04E366846F48046AE4F3E603E46366806F47A
:2043A0008046009600BF00BFAA4E8F0856F827008E07370F0F26BE40B043A74EB24202D162
:2043C000002629E063E0A54EB24201D1012623E0A34EB24201D102261EE0A24EB24201D1F5
:2043E000032619E0A04EB24201D1042614E09F4EB24201D105260FE09D4EB24201D106261F
:204400000AE09C4EB24201D1072605E09A4EB24201D1082600E009268F073F0FBE403043B0
:204420008C4E8F0846F82700944E3068A0435E6806F48036B6F5803F00D120438F4E3060C8
:20444000361D3068A0435E6806F40036B6F5003F00D12043894E361D3060361D3068A043F2
:204460005E6806F48016B6F5801F00D12043834E08363060361D3068A0435E6806F4001625
:20448000B6F5001F00D120437C4E0C363060491C1029FFF41BAFF8BDF0B50C460025002234
:2044A0000023002197E0012606FA01F504EA0502AA427DD106684FEA410C032707FA0CF7D3
:2044C000BE430660CF0800F1200656F827604F074FEAD76C0F2707FA0CF7BE434FEAD10C8F
:2044E00000F1200747F82C6086684FEA410C032707FA0CF7BE438660476801268E40B743B2
:204500004760C6684FEA410C032707FA0CF7BE43C660504E8F0856F827308E07370F0F2601
:20452000BE4033404C4EB04201D1002628E04B4EB04201D1012623E0494EB04201D1022674
:204540001EE0484EB04201D1032619E0464EB04201D1042614E0454EB04201D105260FE0FA
:20456000434EB04201D106260AE0424EB04201D1072605E0404EB04201D1082600E00926DB
:204580008F073F0FBE409E4224D18E07370F0F2606FA07F32F4E8F0856F827609E432D4F14
:2045A0004FEA910C47F82C60344E3668964300E010E0324F3E603E1D366896433F1D3E60A6
:2045C0003E1D366896433F1D3E603E1D366896433F1D3E60491C1029FFF465AFF0BD0246A9
:2045E00013690B400BB1012000E0002070470AB1816101E00B048361704742694A40426160
:20460000704708B502464FF4803000900098084300900098D061D1610098D061D06900905B
:20462000D06900F4803008B1002008BD0120FCE7704710B50446114814300068204028B1F7
:204640000E48143004602046FFF7F2FF10BD0000443802400838014000000240000402407B
:2046600000080240000C0240001002400014024000180240001C024000200240003C014063
:20468000FA48006840F08100F84908600020F74908310860F5480068F5490840F349086046
:2046A0000020091D086008460068F2490843EF49091D08600020ED49843108600846006821
:2046C000ED490843E94984310860E848006820F48020E64908600020E4490C31086070477E
:2046E00038B504460025207800F0010000285ED0DE480830006800F00C0004280ED0DB4890
:204700000830006800F00C00082812D1D748001D006800F48000B0F5800F0AD1D348006840
:20472000C0F34040002842D0606800283FD1012038BD0020CD49891C0870FBF7CDFD05469C
:2047400006E0FBF7C9FD401B642801D90320EFE7C6480068C0F340400028F2D12079C349C8
:20476000891C0870606888B1FBF7B6FD054606E0FBF7B2FD401B642801D90320D8E7BB48FE
:204780000068C0F340400028F2D010E0FBF7A4FD054606E0FBF7A0FD401B642801D903206D
:2047A000C6E7B2480068C0F340400028F2D1207800F00200022864D1AC480830006800F05F
:2047C0000C0060B1A9480830006800F00C0008281ED1A648001D006800F48000C0B9A348C5
:2047E0000068C0F3400020B1E068012801D001209EE79E48006820F0F800F82292FAA2F215
:20480000B2FA82F22169914008439849086038E0E06810B3012099490860FBF75DFD054664
:2048200006E0FBF759FD401B642801D903207FE78E480068C0F340000028F2D08B480068AA
:2048400020F0F800F82292FAA2F2B2FA82F22169914008438549086013E0002087490860CF
:20486000FBF73AFD054606E0FBF736FD401B642801D903205CE77D480068C0F3400000284A
:20488000F2D1207800F0080008282CD16069A8B101207B490860FBF71FFD054606E0FBF7F8
:2048A0001BFD401B642801D9032041E76F4874300068C0F340000028F1D014E00020704968
:2048C0000860FBF709FD054606E0FBF705FD401B642801D903202BE7644874300068C0F3F2
:2048E00040000028F1D1207800F0040004286FD100BF002000905D484030006840F08050AA
:204900005A49403108600846006800F08050009000BF00BF5B48006840F48070594908605E
:20492000FBF7DAFC054606E0FBF7D6FC401B642801D90320FCE65348006800F480700028E5
:20494000F2D00020494970310870FBF7C5FC054608E0FBF7C1FC401B41F28831884201D94A
:204960000320E5E6414870300068C0F340000028EFD1207A3D4970310870A068A0B1FBF759
:20498000ABFC054608E0FBF7A7FC401B41F28831884201D90320CBE6344870300068C0F3B2
:2049A00040000028EFD013E0FBF796FC054608E0FBF792FC401B41F28831884201D9032098
:2049C000B6E62A4870300068C0F340000028EFD1A069E8B325480830006800F00C00082809
:2049E00076D0A06902285DD1002024490866FBF773FC054606E0FBF76FFC401B642801D965
:204A0000032095E619480068C0F340600028F2D1D4E90701084347F6C07292FAA2F2B2FAA6
:204A200082F2616A914008430122A16AC2EB51014FF4403292FAA2F2B2FA82F291400843DD
:204A40004FF0706292FAA2F2B2FA82F2E16A00E040E0914008430549091D08600120074951
:204A60000866FBF739FC054615E0000000380240FFFFF6FA103000040030002000004742DC
:204A8000800E474200700040FBF726FC401B642801D903204CE6FE480068C0F340600028FC
:204AA000F2D017E00020FB490866FBF715FC054606E0FBF711FC401B642801D9032037E637
:204AC000F3480068C0F340600028F2D102E0FFE701202DE600202BE670B504460D460026E0
:204AE000ED48006800F00700A8426FD2EA490D700846006800F00700A84201D0012070BD91
:204B0000207800F00200022809D1E1480830006820F0F000A1680843DD490831086020788B
:204B200000F0010000283BD06068012806D1D8480068C0F3404090B90120E0E760680228AB
:204B400006D1D3480068C0F3406040B90120D6E7CF480068C0F3400008B90120CFE7CC48B3
:204B60000830006820F0030061680843C84908310860FBF7B1FB06466068012811D108E017
:204B8000FBF7AAFB801B41F28831884201D90320B5E7BF480830006800F00C000428EFD105
:204BA000A8E06068022812D108E0FBF795FB801B41F28831884201D90320A0E7B448083025
:204BC000006800F00C000828EFD193E011E008E0FBF782FB801B41F28831884201D9032078
:204BE0008DE7AB480830006800F00C000028EFD180E0207800F00200022809D1A4480830B8
:204C0000006820F0F000A1680843A14908310860207800F00100002862D06068012806D1A2
:204C20009B480068C0F3404090B9012067E76068022806D196480068C0F3406040B90120C2
:204C40005DE793480068C0F3400008B9012056E78F480830006820F00300616808438C4948
:204C600008310860FBF738FB06466068012811D108E0FBF731FB801B41F28831884201D91E
:204C800003203CE782480830006800F00C000428EFD125E06068022811D108E0FBF71CFBB2
:204CA000801B41F28831884201D9032027E778480830006800F00C000828EFD110E008E074
:204CC000FBF70AFB801B41F28831884201D9032015E76F480830006800F00C000028EFD158
:204CE0006D490D700846006800F00700A84201D0012004E7207800F00400042809D16448CF
:204D00000830006820F4E050E1680843604908310860207800F0080008280AD15C4808305A
:204D2000006820F46040216940EAC1005849083108600F20FEF759FD0020E0E670B586B0E5
:204D400006460C46154656BB00BF0020009050483030006840F001004D493031086008469C
:204D6000006800F00100009000BF00BF88150190022002900320049000200390059001A941
:204D80004648FFF79BFA42480830006820F0EC6044EA050108433E490831086029E000BF05
:204DA000002000903A483030006840F004003849303108600846006800F00400009000BF82
:204DC00000BF48150190022002900320049000200390059001A93248FFF770FA2C48083043
:204DE000006820F0784044EAC501084328490831086006B070BD01202649C86470470020BC
:204E00002449C864704770B500210022002300201F4C0834246804F00C0424B1042C04D087
:204E2000082C51D103E01F4850E01F484EE0184C241D246804F03F01154C241D246804F482
:204E4000800484B1184CB4FBF1F5114C241D246847F6C076344096FAA6F6B6FA86F6F44003
:204E600005FB04F20FE00F4CB4FBF1F5084C241D246847F6C076344096FAA6F6B6FA86F6FD
:204E8000F44005FB04F2024C241D24680EE000000038024000004742003C0240000002401C
:204EA000000802400024F40040787D0104F440344FF4403595FAA5F5B5FA85F5EC40641C38
:204EC0006300B2FBF3F001E07E4800BF00BF70BD00B5FFF798FF7C49096801F0F001F02221
:204EE00092FAA2F2B2FA82F2D140784A515CC840774908600846006800BD00B5FFF7E8FFBD
:204F00007149096801F4E0514FF4E05292FAA2F2B2FA82F2D1406D4A515CC84000BD00B59C
:204F2000FFF7D6FF6849096801F460414FF4604292FAA2F2B2FA82F2D140644A515CC84055
:204F400000BD0F21016060490839096801F48021B1F5802F02D1052141600CE05A49083953
:204F6000096801F48031B1F5803F02D10121416001E00021416054490839096801F001013A
:204F800011B10121C16001E00021C1604E490839096801F0F801F82292FAA2F2B2FA82F25C
:204FA000D140016148496831096801F00401042902D1052181600AE043496831096801F075
:204FC000010111B10121816001E0002181603E496C31096801F0010111B10121416101E038
:204FE0000021416138490839096801F08071B1F1807F02D10221816101E001218161324900
:20500000091F096801F48002C2612F49091F096801F03F0202622C49091F096847F6C07239
:20502000114092FAA2F2B2FA82F2D14041622649091F096801F4403101F5803149004FF48A
:20504000403292FAA2F2B2FA82F2D14081621E49091F096801F070614FF0706292FAA2F2B7
:20506000B2FA82F2D140C16270470F220260164A126802F003024260134A126802F0F00264
:205080008260114A126802F4E052C2600E4A126802F46042D20802610E4A126802F007029B
:2050A0000A607047704710B50748001D006800F08000802805D1FFF7F5FF80200249891D16
:2050C000087010BD0024F4000838024094140108F4000020003C024000220268FE4B9842FF
:2050E0000ED0B0F1804F0BD0FC4B984208D0FC4B984205D0FB4B984202D0FB4B984201D1B4
:20510000012300E000231BB122F070024B681A43F14B984220D0B0F1804F1DD0EF4B984291
:205120001AD0EF4B984217D0EE4B984214D0EE4B984211D0ED4B98420ED0ED4B98420BD0C2
:20514000EC4B984208D0EC4B984205D0EB4B984202D0EB4B984201D1012300E000231BB1C9
:2051600022F44072CB681A4302608B68C3620B688362D94B984202D0DB4B984201D101233F
:2051800000E000230BB10B690363012343617047704710B504460CB9012010BD94F83900B9
:2051A00028B9002084F838002046FCF7C1FC022084F83900211D2068FFF78EFF012084F867
:2051C00039000020E9E7704710B50446022084F8390000BF2068006A41F21111084050B9B2
:2051E0002068006A8910084028B92068006820F001002168086000BF2046FFF7E4FF0020EB
:2052000084F8390000BF84F8380000BF10BD0146022081F839000868006840F001000A6844
:205220001060012081F83900002070470146022081F8390000BF0868006A41F211121040FA
:2052400050B90868006A9210104028B90868006820F001000A68106000BF012081F839003B
:205260000020704701460868C06840F001000A68D0600868006840F001000A68106000209A
:20528000704701460868C06820F001000A68D06000BF0868006A41F21112104050B908680D
:2052A000006A9210104028B90868006820F001000A68106000BF00207047704770B504462A
:2052C000A56B012085F839002846FFF7F6FF70BD704770B50446A56B012085F839002846E6
:2052E000FFF7F6FF70BD70B504460E46154694F83900022800D170BD94F83900012806D1C6
:2053000016B9002D00DDF6E7022084F839007D48E169C863AFF25B00E1698864216801F119
:205320002C022B463146E069FEF784FD2068C06840F480702168C8602068006840F00100F2
:20534000216808600020D6E701460868C06820F480700A68D06000BF0868006A41F211120B
:20536000104050B90868006A9210104028B90868006820F001000A68106000BF012081F803
:20538000390000207047704710B504460CB9012010BD94F8390028B9002084F838002046A4
:2053A000FFF7F1FF022084F83900211D2068FFF793FE012084F839000020E9E7704710B5A1
:2053C0000446022084F8390000BF2068006A41F21111084050B92068006A8910084028B9A1
:2053E0002068006820F001002168086000BF2046FFF7E4FF002084F8390000BF84F8380075
:2054000000BF10BD30B50023012404FA01F3046A9C430462046A02FA01F52C43046230BD0C
:2054200030B504460D46012229462068FFF7EAFF29492068884203D02B492068884201D1C2
:20544000012000E0002028B12068406C40F40040216848642068006840F001002168086063
:20546000002030BD30B504460D46002229462068FFF7C8FF18492068884203D01A49206856
:20548000884201D1012000E0002090B100BF2068006A41F21111084050B92068006A89102C
:2054A000084028B92068406C20F400402168486400BF00BF2068006A41F21111084050B9F0
:2054C0002068006A8910084028B92068006820F001002168086017E00000014000040040AA
:2054E00000080040000C00400004014000400140004401400048014000180040001C004090
:2055000000200040D352000800BF002030BD30B504460D4635B1042D0BD0082D10D00C2D70
:205520001CD114E02068C06840F002002168C86015E02068C06840F004002168C8600EE07F
:205540002068C06840F008002168C86007E02068C06840F010002168C86000E000BF00BFCC
:20556000012229462068FFF74DFFF9492068884203D0F8492068884201D1012000E00020E2
:2055800028B12068406C40F40040216848642068006840F0010021680860002030BD30B551
:2055A00004460D4635B1042D0BD0082D10D00C2D1CD114E02068C06820F002002168C860BA
:2055C00015E02068C06820F004002168C8600EE02068C06820F008002168C86007E020688B
:2055E000C06820F010002168C86000E000BF00BF002229462068FFF705FFD54920688842D1
:2056000003D0D4492068884201D1012000E0002090B100BF2068006A41F21111084050B9BD
:205620002068006A8910084028B92068406C20F400402168486400BF00BF2068006A41F256
:205640001111084050B92068006A8910084028B92068006820F001002168086000BF002052
:2056600030BD704770B50546AC6B012084F83900206AA84202D10120207610E0606AA84287
:2056800002D1022020760AE0A06AA84202D10420207604E0E06AA84201D108202076204606
:2056A000FFF7DFFF0020207670BD2DE9F04104460E4615461F4694F83900022801D1BDE828
:2056C000F08194F83900012806D115B9002F00DDF5E7022084F8390036B1042E1BD0082ECD
:2056E00030D00C2E5CD144E0AFF28701206AC163AFF23741206A8164216801F134023B468E
:205700002946206AFEF796FB2068C06840F400702168C86045E0AFF2B301606AC163AFF2FC
:205720006341606A8164216801F138023B462946606AFEF77FFB2068C06840F480602168EB
:20574000C8602EE0AFF2E301A06AC163AFF29341A06A8164216801F13C023B462946A06A49
:20576000FEF768FB2068C06840F400602168C86017E0AFF20F11E06AC163AFF2BF41E06ACB
:205780008164216801F140023B462946E06AFEF751FB2068C06840F480502168C86000E0A7
:2057A00000BF00BF012231462068FFF72BFE68492068884203D067492068884201D101205F
:2057C00000E0002028B12068406C40F40040216848642068006840F00100216808600020E1
:2057E0006DE730B504460D4635B1042D0BD0082D10D00C2D1CD114E02068C06820F400707E
:205800002168C86015E02068C06820F480602168C8600EE02068C06820F400602168C860CA
:2058200007E02068C06820F480502168C86000E000BF00BF002229462068FFF7E3FD444962
:205840002068884203D043492068884201D1012000E0002090B100BF2068006A41F211110B
:20586000084050B92068006A8910084028B92068406C20F400402168486400BF00BF206860
:20588000006A41F21111084050B92068006A8910084028B92068006820F001002168086052
:2058A00000BF012084F83900002030BD704710B504460CB9012010BD94F8390028B9002007
:2058C00084F838002046FFF7F1FF022084F83900211D2068FFF700FC012084F83900002043
:2058E000E9E7704710B50446022084F8390000BF2068006A41F21111084050B92068006AF2
:205900008910084028B92068006820F001002168086000BF2046FFF7E4FF002084F8390000
:2059200000BF84F8380000BF10BD30B504460D46012229462068FFF765FD054920688842D4
:2059400003D004492068884206D1012005E000000000014000040140002028B12068406C45
:2059600040F40040216848642068006840F0010021680860002030BD30B504460D460022BB
:2059800029462068FFF73EFDFE492068884203D0FD492068884201D1012000E0002090B1A7
:2059A00000BF2068006A41F21111084050B92068006A8910084028B92068406C20F4004054
:2059C0002168486400BF00BF2068006A41F21111084050B92068006A8910084028B9206840
:2059E000006820F001002168086000BF012084F83900002030BD30B504460D4635B1042D02
:205A00000BD0082D10D00C2D1CD114E02068C06840F002002168C86015E02068C06840F014
:205A200004002168C8600EE02068C06840F008002168C86007E02068C06840F010002168CA
:205A4000C86000E000BF00BF012229462068FFF7D9FCCC492068884203D0CB49206888423B
:205A600001D1012000E0002028B12068406C40F40040216848642068006840F001002168D3
:205A80000860002030BD30B504460D4635B1042D0BD0082D10D00C2D1CD114E02068C0683E
:205AA00020F002002168C86015E02068C06820F004002168C8600EE02068C06820F0080003
:205AC0002168C86007E02068C06820F010002168C86000E000BF00BF002229462068FFF740
:205AE00091FCA8492068884203D0A7492068884201D1012000E0002090B100BF2068006ADC
:205B000041F21111084050B92068006A8910084028B92068406C20F400402168486400BFAF
:205B200000BF2068006A41F21111084050B92068006A8910084028B92068006820F0010059
:205B40002168086000BF002030BD2DE9F04104460E4615461F4694F83900022801D1BDE87D
:205B6000F08194F83900012806D115B9002F00DDF5E7022084F8390036B1042E1BD0082E28
:205B800030D00C2E5CD144E0AFF22751206AC163AFF6D701206A8164216801F134023B4695
:205BA0002946206AFEF746F92068C06840F400702168C86045E0AFF25351606AC163AFF6B6
:205BC0000311606A8164216801F138023B462946606AFEF72FF92068C06840F48060216829
:205BE000C8602EE0AFF28351A06AC163AFF63311A06A8164216801F13C023B462946A06A41
:205C0000FEF718F92068C06840F400602168C86017E0AFF2AF51E06AC163AFF65F11E06A24
:205C20008164216801F140023B462946E06AFEF701F92068C06840F480502168C86000E054
:205C400000BF00BF012231462068FFF7DBFB4D492068884203D04C492068884201D1012043
:205C600000E0002028B12068406C40F40040216848642068006840F001002168086000203C
:205C80006DE730B504460D4635B1042D0BD0082D10D00C2D1CD114E02068C06820F40070D9
:205CA0002168C86015E02068C06820F480602168C8600EE02068C06820F400602168C86026
:205CC00007E02068C06820F480502168C86000E000BF00BF002229462068FFF793FB29492B
:205CE0002068884203D028492068884201D1012000E0002090B100BF2068006A41F2111182
:205D0000084050B92068006A8910084028B92068406C20F400402168486400BF00BF2068BB
:205D2000006A41F21111084050B92068006A8910084028B92068006820F0010021680860AD
:205D400000BF012084F83900002030BD704710B504460CB9012010BD94F8390028B9002062
:205D600084F838002046FFF7F1FF022084F83900211D2068FFF7B0F9012084F839000020F1
:205D8000E9E700000000014000040140704710B50446022084F8390000BF2068006A41F22C
:205DA0001111084050B92068006A8910084028B92068006820F001002168086000BF2046A5
:205DC000FFF7E4FF002084F8390000BF84F8380000BF10BD30B504460D460122294620687A
:205DE000FFF710FB2068006840F0010021680860002030BD30B504460D46002229462068E8
:205E0000FFF700FB00BF2068006A41F21111084050B92068006A8910084028B92068006896
:205E200020F001002168086000BF002030BD30B504460D4635B1042D0BD0082D10D00C2DD2
:205E40001CD114E02068C06840F002002168C86015E02068C06840F004002168C8600EE056
:205E60002068C06840F008002168C86007E02068C06840F010002168C86000E000BF00BFA3
:205E8000012229462068FFF7BDFA2068006840F0010021680860002030BD30B504460D469A
:205EA00035B1042D0BD0082D10D00C2D1CD114E02068C06820F002002168C86015E02068D1
:205EC000C06820F004002168C8600EE02068C06820F008002168C86007E02068C06820F0C7
:205EE00010002168C86000E000BF00BF002229462068FFF787FA00BF2068006A41F21111ED
:205F0000084050B92068006A8910084028B92068006820F001002168086000BF002030BDBE
:205F2000704770B50546AC6B012084F83900206AA84202D10120207610E0606AA84202D1D8
:205F4000022020760AE0A06AA84202D10420207604E0E06AA84201D1082020762046FFF71A
:205F6000DFFF0020207670BD2DE9F04104460D4616461F4694F83900022801D1BDE8F081E4
:205F800094F83900012806D116B9002F00DDF5E7022084F8390035B1042D1BD0082D30D077
:205FA0000C2D5CD144E0AFF28501206AC163AFF6F341206A8164226802F134013B4632468F
:205FC000206AFDF737FF2068C06840F400702168C86045E0AFF2B501606AC163AFF6235185
:205FE000606A8164226802F138013B463246606AFDF720FF2068C06840F480602168C860F1
:020000040800F2
:206000002EE0AFF2E101A06AC163AFF64F51A06A8164226802F13C013B463246A06AFDF7DC
:2060200009FF2068C06840F400602168C86017E0AFF21111E06AC163AFF67F51E06A816497
:20604000226802F140013B463246E06AFDF7F2FE2068C06840F480502168C86000E000BF57
:2060600000BF012229462068FFF7CCF92068006840F001002168086000207FE730B50446C5
:206080000D4635B1042D0BD0082D10D00C2D1CD114E02068C06820F400702168C86015E0B2
:2060A0002068C06820F480602168C8600EE02068C06820F400602168C86007E02068C06831
:2060C00020F480502168C86000E000BF00BF002229462068FFF796F900BF2068006A41F24B
:2060E0001111084050B92068006A8910084028B92068006820F001002168086000BF0120A7
:2061000084F83900002030BD704770B504460D460CB9012070BD94F8390028B9002084F8EF
:2061200038002046FFF7F0FF022084F83900211D2068FEF7D1FF2068006820F008002168E9
:20614000086020680068284321680860012084F839000020DEE7704710B50446022084F86C
:20616000390000BF2068006A41F21111084050B92068006A8910084028B92068006820F0DB
:2061800001002168086000BF2046FFF7E4FF002084F8390000BF84F8380000BF10BD30B556
:2061A00004460D46012200212068FFF72BF9012204212068FFF726F9FB492068884203D00E
:2061C000FA492068884201D1012000E0002028B12068406C40F4004021684864002030BD74
:2061E00030B504460D46002211462068FFF70AF9002204212068FFF705F9EB4920688842DA
:2062000003D0EA492068884201D1012000E0002090B100BF2068006A41F21111084050B99B
:206220002068006A8910084028B92068406C20F400402168486400BF00BF2068006A41F24A
:206240001111084050B92068006A8910084028B92068006820F001002168086000BF002046
:2062600030BD30B504460D462068C06840F002002168C8602068C06840F004002168C86087
:20628000012200212068FFF7BDF8012204212068FFF7B8F8C4492068884203D0C34920684B
:2062A000884201D1012000E0002028B12068406C40F4004021684864002030BD30B504462F
:2062C0000D462068C06820F002002168C8602068C06820F004002168C86000221146206882
:2062E000FFF790F8002204212068FFF78BF8AE492068884203D0AD492068884201D1012081
:2063000000E0002090B100BF2068006A41F21111084050B92068006A8910084028B92068A9
:20632000406C20F400402168486400BF00BF2068006A41F21111084050B92068006A891087
:20634000084028B92068006820F001002168086000BF002030BD70472DE9F04104460D46BB
:206360004FF000080026002714B90120BDE8F08194F8390028B9002084F838002046FFF7AF
:20638000EAFF022084F839002068806820F0070021688860211D2068FEF79EFE2068D0F89E
:2063A0000880206886692068076A286840EA080840F203308643A969A86840EA0120064337
:2063C00040F60C4086434FF2F0008643E969E86840EA0120064328690001296A40EA0130C2
:2063E000064327F0220727F088076969686840EA011007432068C0F8088020688661206888
:206400000762012084F839000020AFE7704710B50446022084F8390000BF2068006A41F206
:206420001111084050B92068006A8910084028B92068006820F001002168086000BF20461E
:20644000FFF7E4FF002084F8390000BF84F8380000BF10BD30B504460D4615B1042D0CD139
:2064600005E0012200212068FEF7CCFF10E0012204212068FEF7C6FF0AE00122002120687B
:20648000FEF7C0FF012204212068FEF7BBFF00BF00BF2068006840F0010021680860002019
:2064A00030BD30B504460D4615B1042D0CD105E0002211462068FEF7A5FF10E000220421E3
:2064C0002068FEF79FFF0AE0002211462068FEF799FF002204212068FEF794FF00BF00BF54
:2064E00000BF2068006A41F21111084050B92068006A8910084028B92068006820F0010090
:206500002168086000BF002030BD30B504460D4615B1042D18D10BE0012200212068FEF7B0
:2065200071FF2068C06840F002002168C86022E0012204212068FEF765FF2068C06840F04D
:2065400004002168C86016E0012200212068FEF759FF012204212068FEF754FF2068C068AF
:2065600040F002002168C8602068C06840F004002168C86000BF00BF2068006840F0010004
:2065800021680860002030BD30B504460D467DB9002211462068FEF735FF2068C06820F05B
:2065A00002002168C86027E00000014000040140042D0BD1002204212068FEF723FF206820
:2065C000C06820F004002168C86015E0002211462068FEF717FF002204212068FEF712FFF8
:2065E0002068C06820F002002168C8602068C06820F004002168C86000BF2068006A41F2CF
:206600001111084050B92068006A8910084028B92068006820F001002168086000BF012081
:2066200084F83900002030BD2DE9F04104460E4617461D46DDF8188094F83900022801D1C5
:20664000BDE8F08194F83900012809D107B125B9B8F1000F01DD0120F2E7022084F839005F
:2066600026B1042E23D0182E7ED141E0AFF24D71206AC163FC49206A8164226802F13401F5
:2066800043463A46206AFDF7D5FB2068C06840F400702168C8602068006840F001002168F4
:2066A0000860012200212068FEF7ACFE5DE0AFF28D71606AC163EC49606A8164226802F1DC
:2066C000380143462A46606AFDF7B4FB2068C06840F480602168C8602068006840F0010085
:2066E00021680860012204212068FEF78BFE3CE0AFF2D171206AC163DB49206A8164226891
:2067000002F1340143463A46206AFDF793FBAFF2ED71606AC163D449606A8164226802F106
:20672000380143462A46606AFDF784FB2068006840F0010021680860012200212068FEF717
:2067400061FE012204212068FEF75CFE2068C06840F400702168C8602068C06840F48060F2
:206760002168C86001E0FFE700BF00BF002067E730B504460D465DB9002211462068FEF727
:2067800041FE2068C06820F400702168C86023E0042D0BD1002204212068FEF733FE206848
:2067A000C06820F480602168C86015E0002211462068FEF727FE002204212068FEF722FE18
:2067C0002068C06820F400702168C8602068C06820F480602168C86000BF2068006A41F29B
:2067E0001111084050B92068006A8910084028B92068006820F001002168086000BF0120A0
:2068000084F83900002030BD7047704710B5044620680069C0F34000D8B12068C068C0F369
:206820004000B0B16FF0020021680861012020762068806900F0030018B12046FFF770FBB9
:2068400005E02046FFF7E1FF2046FEF70AFF0020207620680069C0F38000D8B12068C068A0
:20686000C0F38000B0B16FF0040021680861022020762068806900F4407018B12046FFF73D
:206880004FFB05E02046FFF7C0FF2046FEF7E9FE0020207620680069C0F3C000D8B1206841
:2068A000C068C0F3C000B0B16FF0080021680861042020762068C06900F0030018B12046F6
:2068C000FFF72EFB05E02046FFF79FFF2046FEF7C8FE0020207620680069C0F30010D8B1A6
:2068E0002068C068C0F30010B0B16FF0100021680861082020762068C06900F4407018B187
:206900002046FFF70DFB05E02046FFF77EFF2046FEF7A7FE002020762068006900F00100BD
